{
  "_format": "hh-sol-artifact-1",
  "contractName": "MetaMoguls",
  "sourceName": "contracts/MetaMoguls.sol",
  "abi": [
    {
      "inputs": [
        {
          "internalType": "uint256",
          "name": "_maxNFTs1",
          "type": "uint256"
        },
        {
          "internalType": "uint256",
          "name": "_maxAllowListSaleNFTs",
          "type": "uint256"
        },
        {
          "internalType": "uint256",
          "name": "_maxGiftedNFTs",
          "type": "uint256"
        },
        {
          "internalType": "string",
          "name": "_baseURI",
          "type": "string"
        },
        {
          "internalType": "bool",
          "name": "_isPublicSaleActive",
          "type": "bool"
        },
        {
          "internalType": "bool",
          "name": "_isAllowListSaleActive",
          "type": "bool"
        },
        {
          "internalType": "bool",
          "name": "_REVEAL",
          "type": "bool"
        }
      ],
      "stateMutability": "nonpayable",
      "type": "constructor"
    },
    {
      "anonymous": false,
      "inputs": [
        {
          "indexed": true,
          "internalType": "address",
          "name": "owner",
          "type": "address"
        },
        {
          "indexed": true,
          "internalType": "address",
          "name": "approved",
          "type": "address"
        },
        {
          "indexed": true,
          "internalType": "uint256",
          "name": "tokenId",
          "type": "uint256"
        }
      ],
      "name": "Approval",
      "type": "event"
    },
    {
      "anonymous": false,
      "inputs": [
        {
          "indexed": true,
          "internalType": "address",
          "name": "owner",
          "type": "address"
        },
        {
          "indexed": true,
          "internalType": "address",
          "name": "operator",
          "type": "address"
        },
        {
          "indexed": false,
          "internalType": "bool",
          "name": "approved",
          "type": "bool"
        }
      ],
      "name": "ApprovalForAll",
      "type": "event"
    },
    {
      "anonymous": false,
      "inputs": [
        {
          "indexed": true,
          "internalType": "address",
          "name": "previousOwner",
          "type": "address"
        },
        {
          "indexed": true,
          "internalType": "address",
          "name": "newOwner",
          "type": "address"
        }
      ],
      "name": "OwnershipTransferred",
      "type": "event"
    },
    {
      "anonymous": false,
      "inputs": [
        {
          "indexed": true,
          "internalType": "address",
          "name": "from",
          "type": "address"
        },
        {
          "indexed": true,
          "internalType": "address",
          "name": "to",
          "type": "address"
        },
        {
          "indexed": true,
          "internalType": "uint256",
          "name": "tokenId",
          "type": "uint256"
        }
      ],
      "name": "Transfer",
      "type": "event"
    },
    {
      "inputs": [],
      "name": "ALLOW_LIST_SALE_PRICE",
      "outputs": [
        {
          "internalType": "uint256",
          "name": "",
          "type": "uint256"
        }
      ],
      "stateMutability": "view",
      "type": "function"
    },
    {
      "inputs": [],
      "name": "MAX_NFTs_PER_WALLET",
      "outputs": [
        {
          "internalType": "uint256",
          "name": "",
          "type": "uint256"
        }
      ],
      "stateMutability": "view",
      "type": "function"
    },
    {
      "inputs": [],
      "name": "PUBLIC_SALE_PRICE",
      "outputs": [
        {
          "internalType": "uint256",
          "name": "",
          "type": "uint256"
        }
      ],
      "stateMutability": "view",
      "type": "function"
    },
    {
      "inputs": [],
      "name": "REVEAL",
      "outputs": [
        {
          "internalType": "bool",
          "name": "",
          "type": "bool"
        }
      ],
      "stateMutability": "view",
      "type": "function"
    },
    {
      "inputs": [
        {
          "internalType": "address",
          "name": "",
          "type": "address"
        }
      ],
      "name": "allowListMintCounts",
      "outputs": [
        {
          "internalType": "uint256",
          "name": "",
          "type": "uint256"
        }
      ],
      "stateMutability": "view",
      "type": "function"
    },
    {
      "inputs": [],
      "name": "allowListSaleMerkleRoot",
      "outputs": [
        {
          "internalType": "bytes32",
          "name": "",
          "type": "bytes32"
        }
      ],
      "stateMutability": "view",
      "type": "function"
    },
    {
      "inputs": [
        {
          "internalType": "address",
          "name": "to",
          "type": "address"
        },
        {
          "internalType": "uint256",
          "name": "tokenId",
          "type": "uint256"
        }
      ],
      "name": "approve",
      "outputs": [],
      "stateMutability": "nonpayable",
      "type": "function"
    },
    {
      "inputs": [
        {
          "internalType": "address",
          "name": "owner",
          "type": "address"
        }
      ],
      "name": "balanceOf",
      "outputs": [
        {
          "internalType": "uint256",
          "name": "",
          "type": "uint256"
        }
      ],
      "stateMutability": "view",
      "type": "function"
    },
    {
      "inputs": [
        {
          "internalType": "bytes32[]",
          "name": "merkleProof",
          "type": "bytes32[]"
        }
      ],
      "name": "claim",
      "outputs": [],
      "stateMutability": "nonpayable",
      "type": "function"
    },
    {
      "inputs": [],
      "name": "claimListMerkleRoot",
      "outputs": [
        {
          "internalType": "bytes32",
          "name": "",
          "type": "bytes32"
        }
      ],
      "stateMutability": "view",
      "type": "function"
    },
    {
      "inputs": [
        {
          "internalType": "address",
          "name": "",
          "type": "address"
        }
      ],
      "name": "claimed",
      "outputs": [
        {
          "internalType": "bool",
          "name": "",
          "type": "bool"
        }
      ],
      "stateMutability": "view",
      "type": "function"
    },
    {
      "inputs": [
        {
          "internalType": "uint256",
          "name": "tokenId",
          "type": "uint256"
        }
      ],
      "name": "getApproved",
      "outputs": [
        {
          "internalType": "address",
          "name": "",
          "type": "address"
        }
      ],
      "stateMutability": "view",
      "type": "function"
    },
    {
      "inputs": [],
      "name": "getBaseURI",
      "outputs": [
        {
          "internalType": "string",
          "name": "",
          "type": "string"
        }
      ],
      "stateMutability": "view",
      "type": "function"
    },
    {
      "inputs": [],
      "name": "getLastTokenId",
      "outputs": [
        {
          "internalType": "uint256",
          "name": "",
          "type": "uint256"
        }
      ],
      "stateMutability": "view",
      "type": "function"
    },
    {
      "inputs": [
        {
          "internalType": "address[]",
          "name": "addresses",
          "type": "address[]"
        }
      ],
      "name": "giftNFTs",
      "outputs": [],
      "stateMutability": "nonpayable",
      "type": "function"
    },
    {
      "inputs": [],
      "name": "isAllowListSaleActive",
      "outputs": [
        {
          "internalType": "bool",
          "name": "",
          "type": "bool"
        }
      ],
      "stateMutability": "view",
      "type": "function"
    },
    {
      "inputs": [
        {
          "internalType": "address",
          "name": "owner",
          "type": "address"
        },
        {
          "internalType": "address",
          "name": "operator",
          "type": "address"
        }
      ],
      "name": "isApprovedForAll",
      "outputs": [
        {
          "internalType": "bool",
          "name": "",
          "type": "bool"
        }
      ],
      "stateMutability": "view",
      "type": "function"
    },
    {
      "inputs": [],
      "name": "isPublicSaleActive",
      "outputs": [
        {
          "internalType": "bool",
          "name": "",
          "type": "bool"
        }
      ],
      "stateMutability": "view",
      "type": "function"
    },
    {
      "inputs": [],
      "name": "maxAllowListSaleNFTs",
      "outputs": [
        {
          "internalType": "uint256",
          "name": "",
          "type": "uint256"
        }
      ],
      "stateMutability": "view",
      "type": "function"
    },
    {
      "inputs": [],
      "name": "maxGiftedNFTs",
      "outputs": [
        {
          "internalType": "uint256",
          "name": "",
          "type": "uint256"
        }
      ],
      "stateMutability": "view",
      "type": "function"
    },
    {
      "inputs": [],
      "name": "maxNFTs",
      "outputs": [
        {
          "internalType": "uint256",
          "name": "",
          "type": "uint256"
        }
      ],
      "stateMutability": "view",
      "type": "function"
    },
    {
      "inputs": [
        {
          "internalType": "uint256",
          "name": "numberOfTokens",
          "type": "uint256"
        }
      ],
      "name": "mint",
      "outputs": [],
      "stateMutability": "payable",
      "type": "function"
    },
    {
      "inputs": [
        {
          "internalType": "uint8",
          "name": "numberOfTokens",
          "type": "uint8"
        },
        {
          "internalType": "bytes32[]",
          "name": "merkleProof",
          "type": "bytes32[]"
        }
      ],
      "name": "mintAllowListSale",
      "outputs": [],
      "stateMutability": "payable",
      "type": "function"
    },
    {
      "inputs": [],
      "name": "name",
      "outputs": [
        {
          "internalType": "string",
          "name": "",
          "type": "string"
        }
      ],
      "stateMutability": "view",
      "type": "function"
    },
    {
      "inputs": [],
      "name": "numGiftedNFTs",
      "outputs": [
        {
          "internalType": "uint256",
          "name": "",
          "type": "uint256"
        }
      ],
      "stateMutability": "view",
      "type": "function"
    },
    {
      "inputs": [],
      "name": "owner",
      "outputs": [
        {
          "internalType": "address",
          "name": "",
          "type": "address"
        }
      ],
      "stateMutability": "view",
      "type": "function"
    },
    {
      "inputs": [
        {
          "internalType": "uint256",
          "name": "tokenId",
          "type": "uint256"
        }
      ],
      "name": "ownerOf",
      "outputs": [
        {
          "internalType": "address",
          "name": "",
          "type": "address"
        }
      ],
      "stateMutability": "view",
      "type": "function"
    },
    {
      "inputs": [],
      "name": "renounceOwnership",
      "outputs": [],
      "stateMutability": "nonpayable",
      "type": "function"
    },
    {
      "inputs": [
        {
          "internalType": "uint256",
          "name": "numToReserve",
          "type": "uint256"
        }
      ],
      "name": "reserveForGifting",
      "outputs": [],
      "stateMutability": "nonpayable",
      "type": "function"
    },
    {
      "inputs": [
        {
          "internalType": "address[]",
          "name": "addresses",
          "type": "address[]"
        }
      ],
      "name": "rollOverNFTs",
      "outputs": [],
      "stateMutability": "nonpayable",
      "type": "function"
    },
    {
      "inputs": [
        {
          "internalType": "uint256",
          "name": "tokenId",
          "type": "uint256"
        },
        {
          "internalType": "uint256",
          "name": "salePrice",
          "type": "uint256"
        }
      ],
      "name": "royaltyInfo",
      "outputs": [
        {
          "internalType": "address",
          "name": "receiver",
          "type": "address"
        },
        {
          "internalType": "uint256",
          "name": "royaltyAmount",
          "type": "uint256"
        }
      ],
      "stateMutability": "view",
      "type": "function"
    },
    {
      "inputs": [
        {
          "internalType": "address",
          "name": "from",
          "type": "address"
        },
        {
          "internalType": "address",
          "name": "to",
          "type": "address"
        },
        {
          "internalType": "uint256",
          "name": "tokenId",
          "type": "uint256"
        }
      ],
      "name": "safeTransferFrom",
      "outputs": [],
      "stateMutability": "nonpayable",
      "type": "function"
    },
    {
      "inputs": [
        {
          "internalType": "address",
          "name": "from",
          "type": "address"
        },
        {
          "internalType": "address",
          "name": "to",
          "type": "address"
        },
        {
          "internalType": "uint256",
          "name": "tokenId",
          "type": "uint256"
        },
        {
          "internalType": "bytes",
          "name": "_data",
          "type": "bytes"
        }
      ],
      "name": "safeTransferFrom",
      "outputs": [],
      "stateMutability": "nonpayable",
      "type": "function"
    },
    {
      "inputs": [
        {
          "internalType": "uint256",
          "name": "_ALLOW_LIST_SALE_PRICE",
          "type": "uint256"
        }
      ],
      "name": "setALLOW_LIST_SALE_PRICEinEther",
      "outputs": [],
      "stateMutability": "nonpayable",
      "type": "function"
    },
    {
      "inputs": [
        {
          "internalType": "bytes32",
          "name": "merkleRoot",
          "type": "bytes32"
        }
      ],
      "name": "setAllowListListMerkleRoot",
      "outputs": [],
      "stateMutability": "nonpayable",
      "type": "function"
    },
    {
      "inputs": [
        {
          "internalType": "address",
          "name": "operator",
          "type": "address"
        },
        {
          "internalType": "bool",
          "name": "approved",
          "type": "bool"
        }
      ],
      "name": "setApprovalForAll",
      "outputs": [],
      "stateMutability": "nonpayable",
      "type": "function"
    },
    {
      "inputs": [
        {
          "internalType": "string",
          "name": "_baseURI1",
          "type": "string"
        }
      ],
      "name": "setBaseURI",
      "outputs": [],
      "stateMutability": "nonpayable",
      "type": "function"
    },
    {
      "inputs": [
        {
          "internalType": "bytes32",
          "name": "merkleRoot",
          "type": "bytes32"
        }
      ],
      "name": "setClaimListMerkleRoot",
      "outputs": [],
      "stateMutability": "nonpayable",
      "type": "function"
    },
    {
      "inputs": [
        {
          "internalType": "bool",
          "name": "_isAllowListSaleActive",
          "type": "bool"
        }
      ],
      "name": "setIsAllowListSaleActive",
      "outputs": [],
      "stateMutability": "nonpayable",
      "type": "function"
    },
    {
      "inputs": [
        {
          "internalType": "bool",
          "name": "_isPublicSaleActive",
          "type": "bool"
        }
      ],
      "name": "setIsPublicSaleActive",
      "outputs": [],
      "stateMutability": "nonpayable",
      "type": "function"
    },
    {
      "inputs": [
        {
          "internalType": "uint256",
          "name": "_MAX_NFTs_PER_WALLET",
          "type": "uint256"
        }
      ],
      "name": "setMAX_NFTs_PER_WALLET",
      "outputs": [],
      "stateMutability": "nonpayable",
      "type": "function"
    },
    {
      "inputs": [
        {
          "internalType": "uint256",
          "name": "_maxAllowListSaleNFTs",
          "type": "uint256"
        }
      ],
      "name": "setMaxAllowListSaleNFTs",
      "outputs": [],
      "stateMutability": "nonpayable",
      "type": "function"
    },
    {
      "inputs": [
        {
          "internalType": "uint256",
          "name": "_maxGiftedNFTs",
          "type": "uint256"
        }
      ],
      "name": "setMaxGiftedNFTs",
      "outputs": [],
      "stateMutability": "nonpayable",
      "type": "function"
    },
    {
      "inputs": [
        {
          "internalType": "uint256",
          "name": "_maxNFTs2",
          "type": "uint256"
        }
      ],
      "name": "setMaxNFTsInTOTALCollection",
      "outputs": [],
      "stateMutability": "nonpayable",
      "type": "function"
    },
    {
      "inputs": [
        {
          "internalType": "uint256",
          "name": "_PUBLIC_SALE_PRICE",
          "type": "uint256"
        }
      ],
      "name": "setPUBLIC_SALE_PRICEinEther",
      "outputs": [],
      "stateMutability": "nonpayable",
      "type": "function"
    },
    {
      "inputs": [
        {
          "internalType": "string",
          "name": "_verificationHash",
          "type": "string"
        }
      ],
      "name": "setVerificationHash",
      "outputs": [],
      "stateMutability": "nonpayable",
      "type": "function"
    },
    {
      "inputs": [
        {
          "internalType": "bytes4",
          "name": "interfaceId",
          "type": "bytes4"
        }
      ],
      "name": "supportsInterface",
      "outputs": [
        {
          "internalType": "bool",
          "name": "",
          "type": "bool"
        }
      ],
      "stateMutability": "view",
      "type": "function"
    },
    {
      "inputs": [],
      "name": "symbol",
      "outputs": [
        {
          "internalType": "string",
          "name": "",
          "type": "string"
        }
      ],
      "stateMutability": "view",
      "type": "function"
    },
    {
      "inputs": [
        {
          "internalType": "uint256",
          "name": "tokenId",
          "type": "uint256"
        }
      ],
      "name": "tokenURI",
      "outputs": [
        {
          "internalType": "string",
          "name": "",
          "type": "string"
        }
      ],
      "stateMutability": "view",
      "type": "function"
    },
    {
      "inputs": [
        {
          "internalType": "address",
          "name": "from",
          "type": "address"
        },
        {
          "internalType": "address",
          "name": "to",
          "type": "address"
        },
        {
          "internalType": "uint256",
          "name": "tokenId",
          "type": "uint256"
        }
      ],
      "name": "transferFrom",
      "outputs": [],
      "stateMutability": "nonpayable",
      "type": "function"
    },
    {
      "inputs": [
        {
          "internalType": "address",
          "name": "newOwner",
          "type": "address"
        }
      ],
      "name": "transferOwnership",
      "outputs": [],
      "stateMutability": "nonpayable",
      "type": "function"
    },
    {
      "inputs": [],
      "name": "verificationHash",
      "outputs": [
        {
          "internalType": "string",
          "name": "",
          "type": "string"
        }
      ],
      "stateMutability": "view",
      "type": "function"
    },
    {
      "inputs": [],
      "name": "withdraw",
      "outputs": [],
      "stateMutability": "nonpayable",
      "type": "function"
    },
    {
      "inputs": [
        {
          "internalType": "contract IERC20",
          "name": "token",
          "type": "address"
        }
      ],
      "name": "withdrawTokens",
      "outputs": [],
      "stateMutability": "nonpayable",
      "type": "function"
    }
  ],
  "bytecode": "0x6080604052600a600b5566d529ae9e860000600d5566b1a2bc2ec50000600f557fa7b3433ed25e71fffc4a706fd54565cc745a603b997ed359114fc405bb57a95060001b6011553480156200005357600080fd5b50604051620062af380380620062af8339818101604052810190620000799190620003e8565b6040518060400160405280600b81526020017f4d657461204d6f67756c730000000000000000000000000000000000000000008152506040518060400160405280600581526020017f4d4f47554c0000000000000000000000000000000000000000000000000000008152508160009080519060200190620000fd92919062000298565b5080600190805190602001906200011692919062000298565b505050620001396200012d620001ca60201b60201c565b620001d260201b60201c565b600160078190555086600c81905550856010819055508460138190555083600990805190602001906200016e92919062000298565b5080601260016101000a81548160ff02191690831515021790555082600e60006101000a81548160ff02191690831515021790555081601260006101000a81548160ff0219169083151502179055505050505050505062000668565b600033905090565b6000600660009054906101000a900473ffffffffffffffffffffffffffffffffffffffff16905081600660006101000a81548173ffffffffffffffffffffffffffffffffffffffff021916908373ffffffffffffffffffffffffffffffffffffffff1602179055508173ffffffffffffffffffffffffffffffffffffffff168173ffffffffffffffffffffffffffffffffffffffff167f8be0079c531659141344cd1fd0a4f28419497f9722a3daafe3b4186f6b6457e060405160405180910390a35050565b828054620002a69062000559565b90600052602060002090601f016020900481019282620002ca576000855562000316565b82601f10620002e557805160ff191683800117855562000316565b8280016001018555821562000316579182015b8281111562000315578251825591602001919060010190620002f8565b5b50905062000325919062000329565b5090565b5b80821115620003445760008160009055506001016200032a565b5090565b60006200035f6200035984620004d7565b620004ae565b9050828152602081018484840111156200037857600080fd5b6200038584828562000523565b509392505050565b6000815190506200039e8162000634565b92915050565b600082601f830112620003b657600080fd5b8151620003c884826020860162000348565b91505092915050565b600081519050620003e2816200064e565b92915050565b600080600080600080600060e0888a0312156200040457600080fd5b6000620004148a828b01620003d1565b9750506020620004278a828b01620003d1565b96505060406200043a8a828b01620003d1565b955050606088015167ffffffffffffffff8111156200045857600080fd5b620004668a828b01620003a4565b9450506080620004798a828b016200038d565b93505060a06200048c8a828b016200038d565b92505060c06200049f8a828b016200038d565b91505092959891949750929550565b6000620004ba620004cd565b9050620004c882826200058f565b919050565b6000604051905090565b600067ffffffffffffffff821115620004f557620004f4620005f4565b5b620005008262000623565b9050602081019050919050565b60008115159050919050565b6000819050919050565b60005b838110156200054357808201518184015260208101905062000526565b8381111562000553576000848401525b50505050565b600060028204905060018216806200057257607f821691505b60208210811415620005895762000588620005c5565b5b50919050565b6200059a8262000623565b810181811067ffffffffffffffff82111715620005bc57620005bb620005f4565b5b80604052505050565b7f4e487b7100000000000000000000000000000000000000000000000000000000600052602260045260246000fd5b7f4e487b7100000000000000000000000000000000000000000000000000000000600052604160045260246000fd5b6000601f19601f8301169050919050565b6200063f816200050d565b81146200064b57600080fd5b50565b620006598162000519565b81146200066557600080fd5b50565b615c3780620006786000396000f3fe6080604052600436106103345760003560e01c80635f02e8ab116101ab578063a0712d68116100f7578063c87b56dd11610095578063e985e9c51161006f578063e985e9c514610bc0578063ec31ffd314610bfd578063f2fde38b14610c26578063fac4e6ca14610c4f57610334565b8063c87b56dd14610b1b578063c884ef8314610b58578063df39069214610b9557610334565b8063b391c508116100d1578063b391c50814610a61578063b88d4fde14610a8a578063be25240a14610ab3578063c0c36a3714610af057610334565b8063a0712d68146109f3578063a22cb46514610a0f578063aa6f596614610a3857610334565b8063714c53981161016457806383c4c00d1161013e57806383c4c00d146109475780638da5cb5b1461097257806395d89b411461099d5780639e87302e146109c857610334565b8063714c5398146108da578063715018a61461090557806382651bd01461091c57610334565b80635f02e8ab146107ba5780636352211e146107e5578063679657fb146108225780636c3a9b4a1461084b5780636ceea7c01461087457806370a082311461089d57610334565b806324f985e91161028557806342842e0e11610223578063509cc170116101fd578063509cc1701461072157806355f804b31461074c5780635b7a524e146107755780635c17e7f81461079157610334565b806342842e0e146106a457806349df728c146106cd5780634e9e1ec6146106f657610334565b80632a55205a1161025f5780632a55205a146105fb578063326f9ad31461063957806338a39e2f146106645780633ccfd60b1461068d57610334565b806324f985e91461057e57806328cad13d146105a75780632900fcdf146105d057610334565b806315bdebe2116102f25780631db629e9116102cc5780631db629e9146104d65780631e84c413146104ff5780631f98ade31461052a57806323b872dd1461055557610334565b806315bdebe21461045b578063195c7a51146104845780631b2cd47e146104ad57610334565b8062c27fa61461033957806301ffc9a71461036257806306fdde031461039f57806307e89ec0146103ca578063081812fc146103f5578063095ea7b314610432575b600080fd5b34801561034557600080fd5b50610360600480360381019061035b919061447c565b610c7a565b005b34801561036e57600080fd5b50610389600480360381019061038491906143c0565b610d00565b6040516103969190614bf6565b60405180910390f35b3480156103ab57600080fd5b506103b4610d7a565b6040516103c19190614c2c565b60405180910390f35b3480156103d657600080fd5b506103df610e0c565b6040516103ec9190614fae565b60405180910390f35b34801561040157600080fd5b5061041c6004803603810190610417919061447c565b610e12565b6040516104299190614b66565b60405180910390f35b34801561043e57600080fd5b506104596004803603810190610454919061427f565b610e97565b005b34801561046757600080fd5b50610482600480360381019061047d9190614397565b610faf565b005b34801561049057600080fd5b506104ab60048036038101906104a6919061447c565b611035565b005b3480156104b957600080fd5b506104d460048036038101906104cf919061447c565b6110bb565b005b3480156104e257600080fd5b506104fd60048036038101906104f89190614345565b611141565b005b34801561050b57600080fd5b506105146111da565b6040516105219190614bf6565b60405180910390f35b34801561053657600080fd5b5061053f6111ed565b60405161054c9190614bf6565b60405180910390f35b34801561056157600080fd5b5061057c60048036038101906105779190614179565b611200565b005b34801561058a57600080fd5b506105a560048036038101906105a0919061443b565b611260565b005b3480156105b357600080fd5b506105ce60048036038101906105c99190614345565b6112f6565b005b3480156105dc57600080fd5b506105e561138f565b6040516105f29190614c11565b60405180910390f35b34801561060757600080fd5b50610622600480360381019061061d91906144ce565b611395565b604051610630929190614bcd565b60405180910390f35b34801561064557600080fd5b5061064e611401565b60405161065b9190614c11565b60405180910390f35b34801561067057600080fd5b5061068b60048036038101906106869190614397565b611407565b005b34801561069957600080fd5b506106a261148d565b005b3480156106b057600080fd5b506106cb60048036038101906106c69190614179565b611558565b005b3480156106d957600080fd5b506106f460048036038101906106ef9190614412565b611578565b005b34801561070257600080fd5b5061070b611713565b6040516107189190614fae565b60405180910390f35b34801561072d57600080fd5b50610736611719565b6040516107439190614fae565b60405180910390f35b34801561075857600080fd5b50610773600480360381019061076e919061443b565b61171f565b005b61078f600480360381019061078a919061450a565b6117b5565b005b34801561079d57600080fd5b506107b860048036038101906107b391906142bb565b611b52565b005b3480156107c657600080fd5b506107cf611d77565b6040516107dc9190614fae565b60405180910390f35b3480156107f157600080fd5b5061080c6004803603810190610807919061447c565b611d7d565b6040516108199190614b66565b60405180910390f35b34801561082e57600080fd5b506108496004803603810190610844919061447c565b611e2f565b005b34801561085757600080fd5b50610872600480360381019061086d919061447c565b611eb5565b005b34801561088057600080fd5b5061089b6004803603810190610896919061447c565b612080565b005b3480156108a957600080fd5b506108c460048036038101906108bf9190614114565b612106565b6040516108d19190614fae565b60405180910390f35b3480156108e657600080fd5b506108ef6121be565b6040516108fc9190614c2c565b60405180910390f35b34801561091157600080fd5b5061091a612250565b005b34801561092857600080fd5b506109316122d8565b60405161093e9190614bf6565b60405180910390f35b34801561095357600080fd5b5061095c6122eb565b6040516109699190614fae565b60405180910390f35b34801561097e57600080fd5b506109876122fc565b6040516109949190614b66565b60405180910390f35b3480156109a957600080fd5b506109b2612326565b6040516109bf9190614c2c565b60405180910390f35b3480156109d457600080fd5b506109dd6123b8565b6040516109ea9190614fae565b60405180910390f35b610a0d6004803603810190610a08919061447c565b6123be565b005b348015610a1b57600080fd5b50610a366004803603810190610a319190614243565b6125ab565b005b348015610a4457600080fd5b50610a5f6004803603810190610a5a91906142bb565b6125c1565b005b348015610a6d57600080fd5b50610a886004803603810190610a839190614300565b612816565b005b348015610a9657600080fd5b50610ab16004803603810190610aac91906141c8565b612a91565b005b348015610abf57600080fd5b50610ada6004803603810190610ad59190614114565b612af3565b604051610ae79190614fae565b60405180910390f35b348015610afc57600080fd5b50610b05612b0b565b604051610b129190614c2c565b60405180910390f35b348015610b2757600080fd5b50610b426004803603810190610b3d919061447c565b612b99565b604051610b4f9190614c2c565b60405180910390f35b348015610b6457600080fd5b50610b7f6004803603810190610b7a9190614114565b612cbd565b604051610b8c9190614bf6565b60405180910390f35b348015610ba157600080fd5b50610baa612cdd565b604051610bb79190614fae565b60405180910390f35b348015610bcc57600080fd5b50610be76004803603810190610be2919061413d565b612ce3565b604051610bf49190614bf6565b60405180910390f35b348015610c0957600080fd5b50610c246004803603810190610c1f919061447c565b612d77565b005b348015610c3257600080fd5b50610c4d6004803603810190610c489190614114565b612dfd565b005b348015610c5b57600080fd5b50610c64612ef5565b604051610c719190614fae565b60405180910390f35b610c82612efb565b73ffffffffffffffffffffffffffffffffffffffff16610ca06122fc565b73ffffffffffffffffffffffffffffffffffffffff1614610cf6576040517f08c379a0000000000000000000000000000000000000000000000000000000008152600401610ced90614eae565b60405180910390fd5b80600f8190555050565b60007f2a55205a000000000000000000000000000000000000000000000000000000007bffffffffffffffffffffffffffffffffffffffffffffffffffffffff1916827bffffffffffffffffffffffffffffffffffffffffffffffffffffffff19161480610d735750610d7282612f03565b5b9050919050565b606060008054610d899061529c565b80601f0160208091040260200160405190810160405280929190818152602001828054610db59061529c565b8015610e025780601f10610dd757610100808354040283529160200191610e02565b820191906000526020600020905b815481529060010190602001808311610de557829003601f168201915b5050505050905090565b600d5481565b6000610e1d82612fe5565b610e5c576040517f08c379a0000000000000000000000000000000000000000000000000000000008152600401610e5390614e6e565b60405180910390fd5b6004600083815260200190815260200160002060009054906101000a900473ffffffffffffffffffffffffffffffffffffffff169050919050565b6000610ea282611d7d565b90508073ffffffffffffffffffffffffffffffffffffffff168373ffffffffffffffffffffffffffffffffffffffff161415610f13576040517f08c379a0000000000000000000000000000000000000000000000000000000008152600401610f0a90614eee565b60405180910390fd5b8073ffffffffffffffffffffffffffffffffffffffff16610f32612efb565b73ffffffffffffffffffffffffffffffffffffffff161480610f615750610f6081610f5b612efb565b612ce3565b5b610fa0576040517f08c379a0000000000000000000000000000000000000000000000000000000008152600401610f9790614d8e565b60405180910390fd5b610faa8383613051565b505050565b610fb7612efb565b73ffffffffffffffffffffffffffffffffffffffff16610fd56122fc565b73ffffffffffffffffffffffffffffffffffffffff161461102b576040517f08c379a000000000000000000000000000000000000000000000000000000000815260040161102290614eae565b60405180910390fd5b8060158190555050565b61103d612efb565b73ffffffffffffffffffffffffffffffffffffffff1661105b6122fc565b73ffffffffffffffffffffffffffffffffffffffff16146110b1576040517f08c379a00000000000000000000000000000000000000000000000000000000081526004016110a890614eae565b60405180910390fd5b8060138190555050565b6110c3612efb565b73ffffffffffffffffffffffffffffffffffffffff166110e16122fc565b73ffffffffffffffffffffffffffffffffffffffff1614611137576040517f08c379a000000000000000000000000000000000000000000000000000000000815260040161112e90614eae565b60405180910390fd5b80600d8190555050565b611149612efb565b73ffffffffffffffffffffffffffffffffffffffff166111676122fc565b73ffffffffffffffffffffffffffffffffffffffff16146111bd576040517f08c379a00000000000000000000000000000000000000000000000000000000081526004016111b490614eae565b60405180910390fd5b80601260006101000a81548160ff02191690831515021790555050565b600e60009054906101000a900460ff1681565b601260009054906101000a900460ff1681565b61121161120b612efb565b8261310a565b611250576040517f08c379a000000000000000000000000000000000000000000000000000000000815260040161124790614f2e565b60405180910390fd5b61125b8383836131e8565b505050565b611268612efb565b73ffffffffffffffffffffffffffffffffffffffff166112866122fc565b73ffffffffffffffffffffffffffffffffffffffff16146112dc576040517f08c379a00000000000000000000000000000000000000000000000000000000081526004016112d390614eae565b60405180910390fd5b80600a90805190602001906112f2929190613e3b565b5050565b6112fe612efb565b73ffffffffffffffffffffffffffffffffffffffff1661131c6122fc565b73ffffffffffffffffffffffffffffffffffffffff1614611372576040517f08c379a000000000000000000000000000000000000000000000000000000000815260040161136990614eae565b60405180910390fd5b80600e60006101000a81548160ff02191690831515021790555050565b60115481565b6000806113a184612fe5565b6113e0576040517f08c379a00000000000000000000000000000000000000000000000000000000081526004016113d790614dae565b60405180910390fd5b306113f66113ef856005613444565b606461345a565b915091509250929050565b60155481565b61140f612efb565b73ffffffffffffffffffffffffffffffffffffffff1661142d6122fc565b73ffffffffffffffffffffffffffffffffffffffff1614611483576040517f08c379a000000000000000000000000000000000000000000000000000000000815260040161147a90614eae565b60405180910390fd5b8060118190555050565b611495612efb565b73ffffffffffffffffffffffffffffffffffffffff166114b36122fc565b73ffffffffffffffffffffffffffffffffffffffff1614611509576040517f08c379a000000000000000000000000000000000000000000000000000000000815260040161150090614eae565b60405180910390fd5b60004790503373ffffffffffffffffffffffffffffffffffffffff166108fc829081150290604051600060405180830381858888f19350505050158015611554573d6000803e3d6000fd5b5050565b61157383838360405180602001604052806000815250612a91565b505050565b611580612efb565b73ffffffffffffffffffffffffffffffffffffffff1661159e6122fc565b73ffffffffffffffffffffffffffffffffffffffff16146115f4576040517f08c379a00000000000000000000000000000000000000000000000000000000081526004016115eb90614eae565b60405180910390fd5b60008173ffffffffffffffffffffffffffffffffffffffff166370a08231306040518263ffffffff1660e01b815260040161162f9190614b66565b60206040518083038186803b15801561164757600080fd5b505afa15801561165b573d6000803e3d6000fd5b505050506040513d601f19601f8201168201806040525081019061167f91906144a5565b90508173ffffffffffffffffffffffffffffffffffffffff1663a9059cbb33836040518363ffffffff1660e01b81526004016116bc929190614bcd565b602060405180830381600087803b1580156116d657600080fd5b505af11580156116ea573d6000803e3d6000fd5b505050506040513d601f19601f8201168201806040525081019061170e919061436e565b505050565b600c5481565b600b5481565b611727612efb565b73ffffffffffffffffffffffffffffffffffffffff166117456122fc565b73ffffffffffffffffffffffffffffffffffffffff161461179b576040517f08c379a000000000000000000000000000000000000000000000000000000000815260040161179290614eae565b60405180910390fd5b80600990805190602001906117b1929190613e3b565b5050565b600260075414156117fb576040517f08c379a00000000000000000000000000000000000000000000000000000000081526004016117f290614f6e565b60405180910390fd5b6002600781905550601260009054906101000a900460ff16611852576040517f08c379a000000000000000000000000000000000000000000000000000000000815260040161184990614d6e565b60405180910390fd5b8260ff16601354600c546118669190615189565b816118716008613470565b61187b91906150a8565b11156118bc576040517f08c379a00000000000000000000000000000000000000000000000000000000081526004016118b390614e2e565b60405180910390fd5b600f548460ff163481836118d0919061512f565b14611910576040517f08c379a000000000000000000000000000000000000000000000000000000000815260040161190790614f4e565b60405180910390fd5b8484601154611987838380806020026020016040519081016040528093929190818152602001838360200280828437600081840152601f19601f82011690508083019250505050505050823360405160200161196c9190614ae5565b6040516020818303038152906040528051906020012061347e565b6119c6576040517f08c379a00000000000000000000000000000000000000000000000000000000081526004016119bd90614d4e565b60405180910390fd5b6000601660003373ffffffffffffffffffffffffffffffffffffffff1673ffffffffffffffffffffffffffffffffffffffff168152602001908152602001600020549050600b548a60ff1682611a1c91906150a8565b1115611a5d576040517f08c379a0000000000000000000000000000000000000000000000000000000008152600401611a5490614e0e565b60405180910390fd5b6010548a60ff16611a6e6008613470565b611a7891906150a8565b1115611ab9576040517f08c379a0000000000000000000000000000000000000000000000000000000008152600401611ab090614e2e565b60405180910390fd5b8960ff1681611ac891906150a8565b601660003373ffffffffffffffffffffffffffffffffffffffff1673ffffffffffffffffffffffffffffffffffffffff1681526020019081526020016000208190555060005b8a60ff16811015611b3d57611b2a33611b25613495565b6134b0565b8080611b35906152ff565b915050611b0e565b50505050505050506001600781905550505050565b60026007541415611b98576040517f08c379a0000000000000000000000000000000000000000000000000000000008152600401611b8f90614f6e565b60405180910390fd5b6002600781905550611ba8612efb565b73ffffffffffffffffffffffffffffffffffffffff16611bc66122fc565b73ffffffffffffffffffffffffffffffffffffffff1614611c1c576040517f08c379a0000000000000000000000000000000000000000000000000000000008152600401611c1390614eae565b60405180910390fd5b8181905060135481601454611c3191906150a8565b1115611c72576040517f08c379a0000000000000000000000000000000000000000000000000000000008152600401611c6990614e8e565b60405180910390fd5b600c5481611c806008613470565b611c8a91906150a8565b1115611ccb576040517f08c379a0000000000000000000000000000000000000000000000000000000008152600401611cc290614e2e565b60405180910390fd5b60008383905090508060146000828254611ce591906150a8565b9250508190555060005b81811015611d6857611d55858583818110611d33577f4e487b7100000000000000000000000000000000000000000000000000000000600052603260045260246000fd5b9050602002016020810190611d489190614114565b611d50613495565b6134b0565b8080611d60906152ff565b915050611cef565b50505060016007819055505050565b600f5481565b6000806002600084815260200190815260200160002060009054906101000a900473ffffffffffffffffffffffffffffffffffffffff169050600073ffffffffffffffffffffffffffffffffffffffff168173ffffffffffffffffffffffffffffffffffffffff161415611e26576040517f08c379a0000000000000000000000000000000000000000000000000000000008152600401611e1d90614dee565b60405180910390fd5b80915050919050565b611e37612efb565b73ffffffffffffffffffffffffffffffffffffffff16611e556122fc565b73ffffffffffffffffffffffffffffffffffffffff1614611eab576040517f08c379a0000000000000000000000000000000000000000000000000000000008152600401611ea290614eae565b60405180910390fd5b80600c8190555050565b60026007541415611efb576040517f08c379a0000000000000000000000000000000000000000000000000000000008152600401611ef290614f6e565b60405180910390fd5b6002600781905550611f0b612efb565b73ffffffffffffffffffffffffffffffffffffffff16611f296122fc565b73ffffffffffffffffffffffffffffffffffffffff1614611f7f576040517f08c379a0000000000000000000000000000000000000000000000000000000008152600401611f7690614eae565b60405180910390fd5b8060135481601454611f9191906150a8565b1115611fd2576040517f08c379a0000000000000000000000000000000000000000000000000000000008152600401611fc990614e8e565b60405180910390fd5b600c5481611fe06008613470565b611fea91906150a8565b111561202b576040517f08c379a000000000000000000000000000000000000000000000000000000000815260040161202290614e2e565b60405180910390fd5b816014600082825461203d91906150a8565b9250508190555060005b82811015612073576120603361205b613495565b6134b0565b808061206b906152ff565b915050612047565b5050600160078190555050565b612088612efb565b73ffffffffffffffffffffffffffffffffffffffff166120a66122fc565b73ffffffffffffffffffffffffffffffffffffffff16146120fc576040517f08c379a00000000000000000000000000000000000000000000000000000000081526004016120f390614eae565b60405180910390fd5b80600b8190555050565b60008073ffffffffffffffffffffffffffffffffffffffff168273ffffffffffffffffffffffffffffffffffffffff161415612177576040517f08c379a000000000000000000000000000000000000000000000000000000000815260040161216e90614dce565b60405180910390fd5b600360008373ffffffffffffffffffffffffffffffffffffffff1673ffffffffffffffffffffffffffffffffffffffff168152602001908152602001600020549050919050565b6060600980546121cd9061529c565b80601f01602080910402602001604051908101604052809291908181526020018280546121f99061529c565b80156122465780601f1061221b57610100808354040283529160200191612246565b820191906000526020600020905b81548152906001019060200180831161222957829003601f168201915b5050505050905090565b612258612efb565b73ffffffffffffffffffffffffffffffffffffffff166122766122fc565b73ffffffffffffffffffffffffffffffffffffffff16146122cc576040517f08c379a00000000000000000000000000000000000000000000000000000000081526004016122c390614eae565b60405180910390fd5b6122d660006134ce565b565b601260019054906101000a900460ff1681565b60006122f76008613470565b905090565b6000600660009054906101000a900473ffffffffffffffffffffffffffffffffffffffff16905090565b6060600180546123359061529c565b80601f01602080910402602001604051908101604052809291908181526020018280546123619061529c565b80156123ae5780601f10612383576101008083540402835291602001916123ae565b820191906000526020600020905b81548152906001019060200180831161239157829003601f168201915b5050505050905090565b60145481565b60026007541415612404576040517f08c379a00000000000000000000000000000000000000000000000000000000081526004016123fb90614f6e565b60405180910390fd5b6002600781905550600d548134818361241d919061512f565b1461245d576040517f08c379a000000000000000000000000000000000000000000000000000000000815260040161245490614f4e565b60405180910390fd5b600e60009054906101000a900460ff166124ac576040517f08c379a00000000000000000000000000000000000000000000000000000000081526004016124a390614f8e565b60405180910390fd5b82601354600c546124bd9190615189565b816124c86008613470565b6124d291906150a8565b1115612513576040517f08c379a000000000000000000000000000000000000000000000000000000000815260040161250a90614e2e565b60405180910390fd5b83600b548161252133612106565b61252b91906150a8565b111561256c576040517f08c379a000000000000000000000000000000000000000000000000000000000815260040161256390614cce565b60405180910390fd5b60005b8581101561259b5761258833612583613495565b6134b0565b8080612593906152ff565b91505061256f565b5050505050600160078190555050565b6125bd6125b6612efb565b8383613594565b5050565b60026007541415612607576040517f08c379a00000000000000000000000000000000000000000000000000000000081526004016125fe90614f6e565b60405180910390fd5b6002600781905550612617612efb565b73ffffffffffffffffffffffffffffffffffffffff166126356122fc565b73ffffffffffffffffffffffffffffffffffffffff161461268b576040517f08c379a000000000000000000000000000000000000000000000000000000000815260040161268290614eae565b60405180910390fd5b60808282905061269b6008613470565b6126a591906150a8565b11156126e6576040517f08c379a00000000000000000000000000000000000000000000000000000000081526004016126dd90614f0e565b60405180910390fd5b60005b8282905081101561280957600160166000858585818110612733577f4e487b7100000000000000000000000000000000000000000000000000000000600052603260045260246000fd5b90506020020160208101906127489190614114565b73ffffffffffffffffffffffffffffffffffffffff1673ffffffffffffffffffffffffffffffffffffffff168152602001908152602001600020600082825461279191906150a8565b925050819055506127f68383838181106127d4577f4e487b7100000000000000000000000000000000000000000000000000000000600052603260045260246000fd5b90506020020160208101906127e99190614114565b6127f1613495565b613701565b8080612801906152ff565b9150506126e9565b5060016007819055505050565b818160155461288d838380806020026020016040519081016040528093929190818152602001838360200280828437600081840152601f19601f8201169050808301925050505050505082336040516020016128729190614ae5565b6040516020818303038152906040528051906020012061347e565b6128cc576040517f08c379a00000000000000000000000000000000000000000000000000000000081526004016128c390614d4e565b60405180910390fd5b6001601354816014546128df91906150a8565b1115612920576040517f08c379a000000000000000000000000000000000000000000000000000000000815260040161291790614e8e565b60405180910390fd5b600c548161292e6008613470565b61293891906150a8565b1115612979576040517f08c379a000000000000000000000000000000000000000000000000000000000815260040161297090614e2e565b60405180910390fd5b601760003373ffffffffffffffffffffffffffffffffffffffff1673ffffffffffffffffffffffffffffffffffffffff16815260200190815260200160002060009054906101000a900460ff1615612a06576040517f08c379a00000000000000000000000000000000000000000000000000000000081526004016129fd90614c8e565b60405180910390fd5b6001601760003373ffffffffffffffffffffffffffffffffffffffff1673ffffffffffffffffffffffffffffffffffffffff16815260200190815260200160002060006101000a81548160ff021916908315150217905550600160146000828254612a7191906150a8565b92505081905550612a8933612a84613495565b6134b0565b505050505050565b612aa2612a9c612efb565b8361310a565b612ae1576040517f08c379a0000000000000000000000000000000000000000000000000000000008152600401612ad890614f2e565b60405180910390fd5b612aed848484846138cf565b50505050565b60166020528060005260406000206000915090505481565b600a8054612b189061529c565b80601f0160208091040260200160405190810160405280929190818152602001828054612b449061529c565b8015612b915780601f10612b6657610100808354040283529160200191612b91565b820191906000526020600020905b815481529060010190602001808311612b7457829003601f168201915b505050505081565b6060612ba482612fe5565b612be3576040517f08c379a0000000000000000000000000000000000000000000000000000000008152600401612bda90614dae565b60405180910390fd5b601260019054906101000a900460ff1615612c2a576009612c038361392b565b604051602001612c14929190614b2c565b6040516020818303038152906040529050612cb8565b60098054612c379061529c565b80601f0160208091040260200160405190810160405280929190818152602001828054612c639061529c565b8015612cb05780601f10612c8557610100808354040283529160200191612cb0565b820191906000526020600020905b815481529060010190602001808311612c9357829003601f168201915b505050505090505b919050565b60176020528060005260406000206000915054906101000a900460ff1681565b60105481565b6000600560008473ffffffffffffffffffffffffffffffffffffffff1673ffffffffffffffffffffffffffffffffffffffff16815260200190815260200160002060008373ffffffffffffffffffffffffffffffffffffffff1673ffffffffffffffffffffffffffffffffffffffff16815260200190815260200160002060009054906101000a900460ff16905092915050565b612d7f612efb565b73ffffffffffffffffffffffffffffffffffffffff16612d9d6122fc565b73ffffffffffffffffffffffffffffffffffffffff1614612df3576040517f08c379a0000000000000000000000000000000000000000000000000000000008152600401612dea90614eae565b60405180910390fd5b8060108190555050565b612e05612efb565b73ffffffffffffffffffffffffffffffffffffffff16612e236122fc565b73ffffffffffffffffffffffffffffffffffffffff1614612e79576040517f08c379a0000000000000000000000000000000000000000000000000000000008152600401612e7090614eae565b60405180910390fd5b600073ffffffffffffffffffffffffffffffffffffffff168173ffffffffffffffffffffffffffffffffffffffff161415612ee9576040517f08c379a0000000000000000000000000000000000000000000000000000000008152600401612ee090614c6e565b60405180910390fd5b612ef2816134ce565b50565b60135481565b600033905090565b60007f80ac58cd000000000000000000000000000000000000000000000000000000007bffffffffffffffffffffffffffffffffffffffffffffffffffffffff1916827bffffffffffffffffffffffffffffffffffffffffffffffffffffffff19161480612fce57507f5b5e139f000000000000000000000000000000000000000000000000000000007bffffffffffffffffffffffffffffffffffffffffffffffffffffffff1916827bffffffffffffffffffffffffffffffffffffffffffffffffffffffff1916145b80612fde5750612fdd82613ad8565b5b9050919050565b60008073ffffffffffffffffffffffffffffffffffffffff166002600084815260200190815260200160002060009054906101000a900473ffffffffffffffffffffffffffffffffffffffff1673ffffffffffffffffffffffffffffffffffffffff1614159050919050565b816004600083815260200190815260200160002060006101000a81548173ffffffffffffffffffffffffffffffffffffffff021916908373ffffffffffffffffffffffffffffffffffffffff160217905550808273ffffffffffffffffffffffffffffffffffffffff166130c483611d7d565b73ffffffffffffffffffffffffffffffffffffffff167f8c5be1e5ebec7d5bd14f71427d1e84f3dd0314c0f7b2291e5b200ac8c7c3b92560405160405180910390a45050565b600061311582612fe5565b613154576040517f08c379a000000000000000000000000000000000000000000000000000000000815260040161314b90614d2e565b60405180910390fd5b600061315f83611d7d565b90508073ffffffffffffffffffffffffffffffffffffffff168473ffffffffffffffffffffffffffffffffffffffff1614806131ce57508373ffffffffffffffffffffffffffffffffffffffff166131b684610e12565b73ffffffffffffffffffffffffffffffffffffffff16145b806131df57506131de8185612ce3565b5b91505092915050565b8273ffffffffffffffffffffffffffffffffffffffff1661320882611d7d565b73ffffffffffffffffffffffffffffffffffffffff161461325e576040517f08c379a000000000000000000000000000000000000000000000000000000000815260040161325590614ece565b60405180910390fd5b600073ffffffffffffffffffffffffffffffffffffffff168273ffffffffffffffffffffffffffffffffffffffff1614156132ce576040517f08c379a00000000000000000000000000000000000000000000000000000000081526004016132c590614cee565b60405180910390fd5b6132d9838383613b42565b6132e4600082613051565b6001600360008573ffffffffffffffffffffffffffffffffffffffff1673ffffffffffffffffffffffffffffffffffffffff16815260200190815260200160002060008282546133349190615189565b925050819055506001600360008473ffffffffffffffffffffffffffffffffffffffff1673ffffffffffffffffffffffffffffffffffffffff168152602001908152602001600020600082825461338b91906150a8565b92505081905550816002600083815260200190815260200160002060006101000a81548173ffffffffffffffffffffffffffffffffffffffff021916908373ffffffffffffffffffffffffffffffffffffffff160217905550808273ffffffffffffffffffffffffffffffffffffffff168473ffffffffffffffffffffffffffffffffffffffff167fddf252ad1be2c89b69c2b068fc378daa952ba7f163c4a11628f55a4df523b3ef60405160405180910390a4505050565b60008183613452919061512f565b905092915050565b6000818361346891906150fe565b905092915050565b600081600001549050919050565b60008261348b8584613b47565b1490509392505050565b60006134a16008613c20565b6134ab6008613470565b905090565b6134ca828260405180602001604052806000815250613c36565b5050565b6000600660009054906101000a900473ffffffffffffffffffffffffffffffffffffffff16905081600660006101000a81548173ffffffffffffffffffffffffffffffffffffffff021916908373ffffffffffffffffffffffffffffffffffffffff1602179055508173ffffffffffffffffffffffffffffffffffffffff168173ffffffffffffffffffffffffffffffffffffffff167f8be0079c531659141344cd1fd0a4f28419497f9722a3daafe3b4186f6b6457e060405160405180910390a35050565b8173ffffffffffffffffffffffffffffffffffffffff168373ffffffffffffffffffffffffffffffffffffffff161415613603576040517f08c379a00000000000000000000000000000000000000000000000000000000081526004016135fa90614d0e565b60405180910390fd5b80600560008573ffffffffffffffffffffffffffffffffffffffff1673ffffffffffffffffffffffffffffffffffffffff16815260200190815260200160002060008473ffffffffffffffffffffffffffffffffffffffff1673ffffffffffffffffffffffffffffffffffffffff16815260200190815260200160002060006101000a81548160ff0219169083151502179055508173ffffffffffffffffffffffffffffffffffffffff168373ffffffffffffffffffffffffffffffffffffffff167f17307eab39ab6107e8899845ad3d59bd9653f200f220920489ca2b5937696c31836040516136f49190614bf6565b60405180910390a3505050565b600073ffffffffffffffffffffffffffffffffffffffff168273ffffffffffffffffffffffffffffffffffffffff161415613771576040517f08c379a000000000000000000000000000000000000000000000000000000000815260040161376890614e4e565b60405180910390fd5b61377a81612fe5565b156137ba576040517f08c379a00000000000000000000000000000000000000000000000000000000081526004016137b190614cae565b60405180910390fd5b6137c660008383613b42565b6001600360008473ffffffffffffffffffffffffffffffffffffffff1673ffffffffffffffffffffffffffffffffffffffff168152602001908152602001600020600082825461381691906150a8565b92505081905550816002600083815260200190815260200160002060006101000a81548173ffffffffffffffffffffffffffffffffffffffff021916908373ffffffffffffffffffffffffffffffffffffffff160217905550808273ffffffffffffffffffffffffffffffffffffffff16600073ffffffffffffffffffffffffffffffffffffffff167fddf252ad1be2c89b69c2b068fc378daa952ba7f163c4a11628f55a4df523b3ef60405160405180910390a45050565b6138da8484846131e8565b6138e684848484613c91565b613925576040517f08c379a000000000000000000000000000000000000000000000000000000000815260040161391c90614c4e565b60405180910390fd5b50505050565b60606000821415613973576040518060400160405280600181526020017f30000000000000000000000000000000000000000000000000000000000000008152509050613ad3565b600082905060005b600082146139a557808061398e906152ff565b915050600a8261399e91906150fe565b915061397b565b60008167ffffffffffffffff8111156139e7577f4e487b7100000000000000000000000000000000000000000000000000000000600052604160045260246000fd5b6040519080825280601f01601f191660200182016040528015613a195781602001600182028036833780820191505090505b5090505b60008514613acc57600182613a329190615189565b9150600a85613a419190615376565b6030613a4d91906150a8565b60f81b818381518110613a89577f4e487b7100000000000000000000000000000000000000000000000000000000600052603260045260246000fd5b60200101907effffffffffffffffffffffffffffffffffffffffffffffffffffffffffffff1916908160001a905350600a85613ac591906150fe565b9450613a1d565b8093505050505b919050565b60007f01ffc9a7000000000000000000000000000000000000000000000000000000007bffffffffffffffffffffffffffffffffffffffffffffffffffffffff1916827bffffffffffffffffffffffffffffffffffffffffffffffffffffffff1916149050919050565b505050565b60008082905060005b8451811015613c15576000858281518110613b94577f4e487b7100000000000000000000000000000000000000000000000000000000600052603260045260246000fd5b60200260200101519050808311613bd5578281604051602001613bb8929190614b00565b604051602081830303815290604052805190602001209250613c01565b8083604051602001613be8929190614b00565b6040516020818303038152906040528051906020012092505b508080613c0d906152ff565b915050613b50565b508091505092915050565b6001816000016000828254019250508190555050565b613c408383613701565b613c4d6000848484613c91565b613c8c576040517f08c379a0000000000000000000000000000000000000000000000000000000008152600401613c8390614c4e565b60405180910390fd5b505050565b6000613cb28473ffffffffffffffffffffffffffffffffffffffff16613e28565b15613e1b578373ffffffffffffffffffffffffffffffffffffffff1663150b7a02613cdb612efb565b8786866040518563ffffffff1660e01b8152600401613cfd9493929190614b81565b602060405180830381600087803b158015613d1757600080fd5b505af1925050508015613d4857506040513d601f19601f82011682018060405250810190613d4591906143e9565b60015b613dcb573d8060008114613d78576040519150601f19603f3d011682016040523d82523d6000602084013e613d7d565b606091505b50600081511415613dc3576040517f08c379a0000000000000000000000000000000000000000000000000000000008152600401613dba90614c4e565b60405180910390fd5b805181602001fd5b63150b7a0260e01b7bffffffffffffffffffffffffffffffffffffffffffffffffffffffff1916817bffffffffffffffffffffffffffffffffffffffffffffffffffffffff191614915050613e20565b600190505b949350505050565b600080823b905060008111915050919050565b828054613e479061529c565b90600052602060002090601f016020900481019282613e695760008555613eb0565b82601f10613e8257805160ff1916838001178555613eb0565b82800160010185558215613eb0579182015b82811115613eaf578251825591602001919060010190613e94565b5b509050613ebd9190613ec1565b5090565b5b80821115613eda576000816000905550600101613ec2565b5090565b6000613ef1613eec84614fee565b614fc9565b905082815260208101848484011115613f0957600080fd5b613f1484828561525a565b509392505050565b6000613f2f613f2a8461501f565b614fc9565b905082815260208101848484011115613f4757600080fd5b613f5284828561525a565b509392505050565b600081359050613f6981615b60565b92915050565b60008083601f840112613f8157600080fd5b8235905067ffffffffffffffff811115613f9a57600080fd5b602083019150836020820283011115613fb257600080fd5b9250929050565b60008083601f840112613fcb57600080fd5b8235905067ffffffffffffffff811115613fe457600080fd5b602083019150836020820283011115613ffc57600080fd5b9250929050565b60008135905061401281615b77565b92915050565b60008151905061402781615b77565b92915050565b60008135905061403c81615b8e565b92915050565b60008135905061405181615ba5565b92915050565b60008151905061406681615ba5565b92915050565b600082601f83011261407d57600080fd5b813561408d848260208601613ede565b91505092915050565b6000813590506140a581615bbc565b92915050565b600082601f8301126140bc57600080fd5b81356140cc848260208601613f1c565b91505092915050565b6000813590506140e481615bd3565b92915050565b6000815190506140f981615bd3565b92915050565b60008135905061410e81615bea565b92915050565b60006020828403121561412657600080fd5b600061413484828501613f5a565b91505092915050565b6000806040838503121561415057600080fd5b600061415e85828601613f5a565b925050602061416f85828601613f5a565b9150509250929050565b60008060006060848603121561418e57600080fd5b600061419c86828701613f5a565b93505060206141ad86828701613f5a565b92505060406141be868287016140d5565b9150509250925092565b600080600080608085870312156141de57600080fd5b60006141ec87828801613f5a565b94505060206141fd87828801613f5a565b935050604061420e878288016140d5565b925050606085013567ffffffffffffffff81111561422b57600080fd5b6142378782880161406c565b91505092959194509250565b6000806040838503121561425657600080fd5b600061426485828601613f5a565b925050602061427585828601614003565b9150509250929050565b6000806040838503121561429257600080fd5b60006142a085828601613f5a565b92505060206142b1858286016140d5565b9150509250929050565b600080602083850312156142ce57600080fd5b600083013567ffffffffffffffff8111156142e857600080fd5b6142f485828601613f6f565b92509250509250929050565b6000806020838503121561431357600080fd5b600083013567ffffffffffffffff81111561432d57600080fd5b61433985828601613fb9565b92509250509250929050565b60006020828403121561435757600080fd5b600061436584828501614003565b91505092915050565b60006020828403121561438057600080fd5b600061438e84828501614018565b91505092915050565b6000602082840312156143a957600080fd5b60006143b78482850161402d565b91505092915050565b6000602082840312156143d257600080fd5b60006143e084828501614042565b91505092915050565b6000602082840312156143fb57600080fd5b600061440984828501614057565b91505092915050565b60006020828403121561442457600080fd5b600061443284828501614096565b91505092915050565b60006020828403121561444d57600080fd5b600082013567ffffffffffffffff81111561446757600080fd5b614473848285016140ab565b91505092915050565b60006020828403121561448e57600080fd5b600061449c848285016140d5565b91505092915050565b6000602082840312156144b757600080fd5b60006144c5848285016140ea565b91505092915050565b600080604083850312156144e157600080fd5b60006144ef858286016140d5565b9250506020614500858286016140d5565b9150509250929050565b60008060006040848603121561451f57600080fd5b600061452d868287016140ff565b935050602084013567ffffffffffffffff81111561454a57600080fd5b61455686828701613fb9565b92509250509250925092565b61456b816151bd565b82525050565b61458261457d826151bd565b615348565b82525050565b614591816151cf565b82525050565b6145a0816151db565b82525050565b6145b76145b2826151db565b61535a565b82525050565b60006145c882615065565b6145d2818561507b565b93506145e2818560208601615269565b6145eb81615463565b840191505092915050565b600061460182615070565b61460b818561508c565b935061461b818560208601615269565b61462481615463565b840191505092915050565b600061463a82615070565b614644818561509d565b9350614654818560208601615269565b80840191505092915050565b6000815461466d8161529c565b614677818661509d565b9450600182166000811461469257600181146146a3576146d6565b60ff198316865281860193506146d6565b6146ac85615050565b60005b838110156146ce578154818901526001820191506020810190506146af565b838801955050505b50505092915050565b60006146ec60328361508c565b91506146f782615481565b604082019050919050565b600061470f60268361508c565b915061471a826154d0565b604082019050919050565b600061473260228361508c565b915061473d8261551f565b604082019050919050565b6000614755601c8361508c565b91506147608261556e565b602082019050919050565b600061477860178361508c565b915061478382615597565b602082019050919050565b600061479b60248361508c565b91506147a6826155c0565b604082019050919050565b60006147be60198361508c565b91506147c98261560f565b602082019050919050565b60006147e1602c8361508c565b91506147ec82615638565b604082019050919050565b6000614804601e8361508c565b915061480f82615687565b602082019050919050565b6000614827601b8361508c565b9150614832826156b0565b602082019050919050565b600061484a60388361508c565b9150614855826156d9565b604082019050919050565b600061486d60118361508c565b915061487882615728565b602082019050919050565b6000614890602a8361508c565b915061489b82615751565b604082019050919050565b60006148b360298361508c565b91506148be826157a0565b604082019050919050565b60006148d6602a8361508c565b91506148e1826157ef565b604082019050919050565b60006148f960218361508c565b91506149048261583e565b604082019050919050565b600061491c60208361508c565b91506149278261588d565b602082019050919050565b600061493f602c8361508c565b915061494a826158b6565b604082019050919050565b600061496260058361509d565b915061496d82615905565b600582019050919050565b600061498560218361508c565b91506149908261592e565b604082019050919050565b60006149a860208361508c565b91506149b38261597d565b602082019050919050565b60006149cb60298361508c565b91506149d6826159a6565b604082019050919050565b60006149ee60218361508c565b91506149f9826159f5565b604082019050919050565b6000614a1160208361508c565b9150614a1c82615a44565b602082019050919050565b6000614a3460318361508c565b9150614a3f82615a6d565b604082019050919050565b6000614a5760188361508c565b9150614a6282615abc565b602082019050919050565b6000614a7a601f8361508c565b9150614a8582615ae5565b602082019050919050565b6000614a9d60178361508c565b9150614aa882615b0e565b602082019050919050565b6000614ac060018361509d565b9150614acb82615b37565b600182019050919050565b614adf81615243565b82525050565b6000614af18284614571565b60148201915081905092915050565b6000614b0c82856145a6565b602082019150614b1c82846145a6565b6020820191508190509392505050565b6000614b388285614660565b9150614b4382614ab3565b9150614b4f828461462f565b9150614b5a82614955565b91508190509392505050565b6000602082019050614b7b6000830184614562565b92915050565b6000608082019050614b966000830187614562565b614ba36020830186614562565b614bb06040830185614ad6565b8181036060830152614bc281846145bd565b905095945050505050565b6000604082019050614be26000830185614562565b614bef6020830184614ad6565b9392505050565b6000602082019050614c0b6000830184614588565b92915050565b6000602082019050614c266000830184614597565b92915050565b60006020820190508181036000830152614c4681846145f6565b905092915050565b60006020820190508181036000830152614c67816146df565b9050919050565b60006020820190508181036000830152614c8781614702565b9050919050565b60006020820190508181036000830152614ca781614725565b9050919050565b60006020820190508181036000830152614cc781614748565b9050919050565b60006020820190508181036000830152614ce78161476b565b9050919050565b60006020820190508181036000830152614d078161478e565b9050919050565b60006020820190508181036000830152614d27816147b1565b9050919050565b60006020820190508181036000830152614d47816147d4565b9050919050565b60006020820190508181036000830152614d67816147f7565b9050919050565b60006020820190508181036000830152614d878161481a565b9050919050565b60006020820190508181036000830152614da78161483d565b9050919050565b60006020820190508181036000830152614dc781614860565b9050919050565b60006020820190508181036000830152614de781614883565b9050919050565b60006020820190508181036000830152614e07816148a6565b9050919050565b60006020820190508181036000830152614e27816148c9565b9050919050565b60006020820190508181036000830152614e47816148ec565b9050919050565b60006020820190508181036000830152614e678161490f565b9050919050565b60006020820190508181036000830152614e8781614932565b9050919050565b60006020820190508181036000830152614ea781614978565b9050919050565b60006020820190508181036000830152614ec78161499b565b9050919050565b60006020820190508181036000830152614ee7816149be565b9050919050565b60006020820190508181036000830152614f07816149e1565b9050919050565b60006020820190508181036000830152614f2781614a04565b9050919050565b60006020820190508181036000830152614f4781614a27565b9050919050565b60006020820190508181036000830152614f6781614a4a565b9050919050565b60006020820190508181036000830152614f8781614a6d565b9050919050565b60006020820190508181036000830152614fa781614a90565b9050919050565b6000602082019050614fc36000830184614ad6565b92915050565b6000614fd3614fe4565b9050614fdf82826152ce565b919050565b6000604051905090565b600067ffffffffffffffff82111561500957615008615434565b5b61501282615463565b9050602081019050919050565b600067ffffffffffffffff82111561503a57615039615434565b5b61504382615463565b9050602081019050919050565b60008190508160005260206000209050919050565b600081519050919050565b600081519050919050565b600082825260208201905092915050565b600082825260208201905092915050565b600081905092915050565b60006150b382615243565b91506150be83615243565b9250827fffffffffffffffffffffffffffffffffffffffffffffffffffffffffffffffff038211156150f3576150f26153a7565b5b828201905092915050565b600061510982615243565b915061511483615243565b925082615124576151236153d6565b5b828204905092915050565b600061513a82615243565b915061514583615243565b9250817fffffffffffffffffffffffffffffffffffffffffffffffffffffffffffffffff048311821515161561517e5761517d6153a7565b5b828202905092915050565b600061519482615243565b915061519f83615243565b9250828210156151b2576151b16153a7565b5b828203905092915050565b60006151c882615223565b9050919050565b60008115159050919050565b6000819050919050565b60007fffffffff0000000000000000000000000000000000000000000000000000000082169050919050565b600061521c826151bd565b9050919050565b600073ffffffffffffffffffffffffffffffffffffffff82169050919050565b6000819050919050565b600060ff82169050919050565b82818337600083830152505050565b60005b8381101561528757808201518184015260208101905061526c565b83811115615296576000848401525b50505050565b600060028204905060018216806152b457607f821691505b602082108114156152c8576152c7615405565b5b50919050565b6152d782615463565b810181811067ffffffffffffffff821117156152f6576152f5615434565b5b80604052505050565b600061530a82615243565b91507fffffffffffffffffffffffffffffffffffffffffffffffffffffffffffffffff82141561533d5761533c6153a7565b5b600182019050919050565b600061535382615364565b9050919050565b6000819050919050565b600061536f82615474565b9050919050565b600061538182615243565b915061538c83615243565b92508261539c5761539b6153d6565b5b828206905092915050565b7f4e487b7100000000000000000000000000000000000000000000000000000000600052601160045260246000fd5b7f4e487b7100000000000000000000000000000000000000000000000000000000600052601260045260246000fd5b7f4e487b7100000000000000000000000000000000000000000000000000000000600052602260045260246000fd5b7f4e487b7100000000000000000000000000000000000000000000000000000000600052604160045260246000fd5b6000601f19601f8301169050919050565b60008160601b9050919050565b7f4552433732313a207472616e7366657220746f206e6f6e20455243373231526560008201527f63656976657220696d706c656d656e7465720000000000000000000000000000602082015250565b7f4f776e61626c653a206e6577206f776e657220697320746865207a65726f206160008201527f6464726573730000000000000000000000000000000000000000000000000000602082015250565b7f4e465420616c726561647920636c61696d656420627920746869732077616c6c60008201527f6574000000000000000000000000000000000000000000000000000000000000602082015250565b7f4552433732313a20746f6b656e20616c7265616479206d696e74656400000000600082015250565b7f4d6178204e46547320746f206d696e742069732074656e000000000000000000600082015250565b7f4552433732313a207472616e7366657220746f20746865207a65726f2061646460008201527f7265737300000000000000000000000000000000000000000000000000000000602082015250565b7f4552433732313a20617070726f766520746f2063616c6c657200000000000000600082015250565b7f4552433732313a206f70657261746f7220717565727920666f72206e6f6e657860008201527f697374656e7420746f6b656e0000000000000000000000000000000000000000602082015250565b7f4164647265737320646f6573206e6f7420657869737420696e206c6973740000600082015250565b7f416c6c6f77206c6973742073616c65206973206e6f74206f70656e0000000000600082015250565b7f4552433732313a20617070726f76652063616c6c6572206973206e6f74206f7760008201527f6e6572206e6f7220617070726f76656420666f7220616c6c0000000000000000602082015250565b7f4e6f6e6578697374656e7420746f6b656e000000000000000000000000000000600082015250565b7f4552433732313a2062616c616e636520717565727920666f7220746865207a6560008201527f726f206164647265737300000000000000000000000000000000000000000000602082015250565b7f4552433732313a206f776e657220717565727920666f72206e6f6e657869737460008201527f656e7420746f6b656e0000000000000000000000000000000000000000000000602082015250565b7f4d6178204e46547320746f206d696e7420696e20616c6c6f77206c697374207360008201527f616c652069732074656e00000000000000000000000000000000000000000000602082015250565b7f4e6f7420656e6f756768204e4654732072656d61696e696e6720746f206d696e60008201527f7400000000000000000000000000000000000000000000000000000000000000602082015250565b7f4552433732313a206d696e7420746f20746865207a65726f2061646472657373600082015250565b7f4552433732313a20617070726f76656420717565727920666f72206e6f6e657860008201527f697374656e7420746f6b656e0000000000000000000000000000000000000000602082015250565b7f2e6a736f6e000000000000000000000000000000000000000000000000000000600082015250565b7f4e6f7420656e6f756768204e4654732072656d61696e696e6720746f2067696660008201527f7400000000000000000000000000000000000000000000000000000000000000602082015250565b7f4f776e61626c653a2063616c6c6572206973206e6f7420746865206f776e6572600082015250565b7f4552433732313a207472616e73666572206f6620746f6b656e2074686174206960008201527f73206e6f74206f776e0000000000000000000000000000000000000000000000602082015250565b7f4552433732313a20617070726f76616c20746f2063757272656e74206f776e6560008201527f7200000000000000000000000000000000000000000000000000000000000000602082015250565b7f416c6c204e4654732061726520616c726561647920726f6c6c6564206f766572600082015250565b7f4552433732313a207472616e736665722063616c6c6572206973206e6f74206f60008201527f776e6572206e6f7220617070726f766564000000000000000000000000000000602082015250565b7f496e636f7272656374204554482076616c75652073656e740000000000000000600082015250565b7f5265656e7472616e637947756172643a207265656e7472616e742063616c6c00600082015250565b7f5075626c69632073616c65206973206e6f74206f70656e000000000000000000600082015250565b7f2f00000000000000000000000000000000000000000000000000000000000000600082015250565b615b69816151bd565b8114615b7457600080fd5b50565b615b80816151cf565b8114615b8b57600080fd5b50565b615b97816151db565b8114615ba257600080fd5b50565b615bae816151e5565b8114615bb957600080fd5b50565b615bc581615211565b8114615bd057600080fd5b50565b615bdc81615243565b8114615be757600080fd5b50565b615bf38161524d565b8114615bfe57600080fd5b5056fea264697066735822122079512708f56a67b8f4043d976df2babd66acfe5ed2ae4e9f93e6caf29d08340b64736f6c63430008040033",
  "linkReferences": {},
  "deployedLinkReferences": {}
}