{
  "_format": "hh-sol-artifact-1",
  "contractName": "MetaMogulsV2",
  "sourceName": "contracts/MetaMogulsV2.sol",
  "abi": [
    {
      "inputs": [
        {
          "internalType": "uint256",
          "name": "_maxNFTs1",
          "type": "uint256"
        },
        {
          "internalType": "string",
          "name": "_baseURI",
          "type": "string"
        },
        {
          "internalType": "bool",
          "name": "_isPublicSaleActive",
          "type": "bool"
        },
        {
          "internalType": "bool",
          "name": "_REVEAL",
          "type": "bool"
        },
        {
          "internalType": "address",
          "name": "_oldContract",
          "type": "address"
        },
        {
          "internalType": "uint256",
          "name": "_currentSupply",
          "type": "uint256"
        },
        {
          "internalType": "uint256",
          "name": "_initialReserveCount",
          "type": "uint256"
        }
      ],
      "stateMutability": "nonpayable",
      "type": "constructor"
    },
    {
      "anonymous": false,
      "inputs": [
        {
          "indexed": true,
          "internalType": "address",
          "name": "owner",
          "type": "address"
        },
        {
          "indexed": true,
          "internalType": "address",
          "name": "approved",
          "type": "address"
        },
        {
          "indexed": true,
          "internalType": "uint256",
          "name": "tokenId",
          "type": "uint256"
        }
      ],
      "name": "Approval",
      "type": "event"
    },
    {
      "anonymous": false,
      "inputs": [
        {
          "indexed": true,
          "internalType": "address",
          "name": "owner",
          "type": "address"
        },
        {
          "indexed": true,
          "internalType": "address",
          "name": "operator",
          "type": "address"
        },
        {
          "indexed": false,
          "internalType": "bool",
          "name": "approved",
          "type": "bool"
        }
      ],
      "name": "ApprovalForAll",
      "type": "event"
    },
    {
      "anonymous": false,
      "inputs": [
        {
          "indexed": true,
          "internalType": "address",
          "name": "previousOwner",
          "type": "address"
        },
        {
          "indexed": true,
          "internalType": "address",
          "name": "newOwner",
          "type": "address"
        }
      ],
      "name": "OwnershipTransferred",
      "type": "event"
    },
    {
      "anonymous": false,
      "inputs": [
        {
          "indexed": false,
          "internalType": "address",
          "name": "account",
          "type": "address"
        }
      ],
      "name": "Paused",
      "type": "event"
    },
    {
      "anonymous": false,
      "inputs": [
        {
          "indexed": true,
          "internalType": "address",
          "name": "from",
          "type": "address"
        },
        {
          "indexed": true,
          "internalType": "address",
          "name": "to",
          "type": "address"
        },
        {
          "indexed": true,
          "internalType": "uint256",
          "name": "tokenId",
          "type": "uint256"
        }
      ],
      "name": "Transfer",
      "type": "event"
    },
    {
      "anonymous": false,
      "inputs": [
        {
          "indexed": false,
          "internalType": "address",
          "name": "account",
          "type": "address"
        }
      ],
      "name": "Unpaused",
      "type": "event"
    },
    {
      "inputs": [],
      "name": "PUBLIC_SALE_PRICE",
      "outputs": [
        {
          "internalType": "uint256",
          "name": "",
          "type": "uint256"
        }
      ],
      "stateMutability": "view",
      "type": "function"
    },
    {
      "inputs": [],
      "name": "REVEAL",
      "outputs": [
        {
          "internalType": "bool",
          "name": "",
          "type": "bool"
        }
      ],
      "stateMutability": "view",
      "type": "function"
    },
    {
      "inputs": [
        {
          "internalType": "uint256",
          "name": "",
          "type": "uint256"
        }
      ],
      "name": "allMigratedTokens",
      "outputs": [
        {
          "internalType": "uint256",
          "name": "",
          "type": "uint256"
        }
      ],
      "stateMutability": "view",
      "type": "function"
    },
    {
      "inputs": [
        {
          "internalType": "address",
          "name": "to",
          "type": "address"
        },
        {
          "internalType": "uint256",
          "name": "tokenId",
          "type": "uint256"
        }
      ],
      "name": "approve",
      "outputs": [],
      "stateMutability": "nonpayable",
      "type": "function"
    },
    {
      "inputs": [
        {
          "internalType": "address",
          "name": "owner",
          "type": "address"
        }
      ],
      "name": "balanceOf",
      "outputs": [
        {
          "internalType": "uint256",
          "name": "",
          "type": "uint256"
        }
      ],
      "stateMutability": "view",
      "type": "function"
    },
    {
      "inputs": [
        {
          "internalType": "uint256",
          "name": "tokenId",
          "type": "uint256"
        }
      ],
      "name": "claim",
      "outputs": [],
      "stateMutability": "nonpayable",
      "type": "function"
    },
    {
      "inputs": [
        {
          "internalType": "uint256[]",
          "name": "ownedTokens",
          "type": "uint256[]"
        }
      ],
      "name": "claimAll",
      "outputs": [],
      "stateMutability": "nonpayable",
      "type": "function"
    },
    {
      "inputs": [],
      "name": "currentSupply",
      "outputs": [
        {
          "internalType": "uint256",
          "name": "",
          "type": "uint256"
        }
      ],
      "stateMutability": "view",
      "type": "function"
    },
    {
      "inputs": [],
      "name": "getAllMigratedTokens",
      "outputs": [
        {
          "internalType": "uint256[]",
          "name": "",
          "type": "uint256[]"
        }
      ],
      "stateMutability": "view",
      "type": "function"
    },
    {
      "inputs": [
        {
          "internalType": "uint256",
          "name": "tokenId",
          "type": "uint256"
        }
      ],
      "name": "getApproved",
      "outputs": [
        {
          "internalType": "address",
          "name": "",
          "type": "address"
        }
      ],
      "stateMutability": "view",
      "type": "function"
    },
    {
      "inputs": [],
      "name": "getBaseURI",
      "outputs": [
        {
          "internalType": "string",
          "name": "",
          "type": "string"
        }
      ],
      "stateMutability": "view",
      "type": "function"
    },
    {
      "inputs": [],
      "name": "getCurrentMintedSupply",
      "outputs": [
        {
          "internalType": "uint256",
          "name": "",
          "type": "uint256"
        }
      ],
      "stateMutability": "view",
      "type": "function"
    },
    {
      "inputs": [],
      "name": "getLastTokenId",
      "outputs": [
        {
          "internalType": "uint256",
          "name": "",
          "type": "uint256"
        }
      ],
      "stateMutability": "view",
      "type": "function"
    },
    {
      "inputs": [],
      "name": "getReserveTokenIdsMinted",
      "outputs": [
        {
          "internalType": "uint256[]",
          "name": "",
          "type": "uint256[]"
        }
      ],
      "stateMutability": "view",
      "type": "function"
    },
    {
      "inputs": [
        {
          "internalType": "address",
          "name": "owner",
          "type": "address"
        },
        {
          "internalType": "address",
          "name": "operator",
          "type": "address"
        }
      ],
      "name": "isApprovedForAll",
      "outputs": [
        {
          "internalType": "bool",
          "name": "",
          "type": "bool"
        }
      ],
      "stateMutability": "view",
      "type": "function"
    },
    {
      "inputs": [],
      "name": "isPublicSaleActive",
      "outputs": [
        {
          "internalType": "bool",
          "name": "",
          "type": "bool"
        }
      ],
      "stateMutability": "view",
      "type": "function"
    },
    {
      "inputs": [],
      "name": "maxNFTs",
      "outputs": [
        {
          "internalType": "uint256",
          "name": "",
          "type": "uint256"
        }
      ],
      "stateMutability": "view",
      "type": "function"
    },
    {
      "inputs": [
        {
          "internalType": "uint256",
          "name": "",
          "type": "uint256"
        }
      ],
      "name": "migratedTokensById",
      "outputs": [
        {
          "internalType": "bool",
          "name": "",
          "type": "bool"
        }
      ],
      "stateMutability": "view",
      "type": "function"
    },
    {
      "inputs": [
        {
          "internalType": "uint256",
          "name": "numberOfTokens",
          "type": "uint256"
        }
      ],
      "name": "mint",
      "outputs": [],
      "stateMutability": "payable",
      "type": "function"
    },
    {
      "inputs": [],
      "name": "name",
      "outputs": [
        {
          "internalType": "string",
          "name": "",
          "type": "string"
        }
      ],
      "stateMutability": "view",
      "type": "function"
    },
    {
      "inputs": [],
      "name": "oldContract",
      "outputs": [
        {
          "internalType": "contract IERC721",
          "name": "",
          "type": "address"
        }
      ],
      "stateMutability": "view",
      "type": "function"
    },
    {
      "inputs": [],
      "name": "owner",
      "outputs": [
        {
          "internalType": "address",
          "name": "",
          "type": "address"
        }
      ],
      "stateMutability": "view",
      "type": "function"
    },
    {
      "inputs": [
        {
          "internalType": "uint256",
          "name": "tokenId",
          "type": "uint256"
        }
      ],
      "name": "ownerOf",
      "outputs": [
        {
          "internalType": "address",
          "name": "",
          "type": "address"
        }
      ],
      "stateMutability": "view",
      "type": "function"
    },
    {
      "inputs": [],
      "name": "paused",
      "outputs": [
        {
          "internalType": "bool",
          "name": "",
          "type": "bool"
        }
      ],
      "stateMutability": "view",
      "type": "function"
    },
    {
      "inputs": [],
      "name": "renounceOwnership",
      "outputs": [],
      "stateMutability": "nonpayable",
      "type": "function"
    },
    {
      "inputs": [
        {
          "internalType": "address",
          "name": "from",
          "type": "address"
        },
        {
          "internalType": "address",
          "name": "to",
          "type": "address"
        },
        {
          "internalType": "uint256",
          "name": "tokenId",
          "type": "uint256"
        }
      ],
      "name": "safeTransferFrom",
      "outputs": [],
      "stateMutability": "nonpayable",
      "type": "function"
    },
    {
      "inputs": [
        {
          "internalType": "address",
          "name": "from",
          "type": "address"
        },
        {
          "internalType": "address",
          "name": "to",
          "type": "address"
        },
        {
          "internalType": "uint256",
          "name": "tokenId",
          "type": "uint256"
        },
        {
          "internalType": "bytes",
          "name": "_data",
          "type": "bytes"
        }
      ],
      "name": "safeTransferFrom",
      "outputs": [],
      "stateMutability": "nonpayable",
      "type": "function"
    },
    {
      "inputs": [
        {
          "internalType": "address",
          "name": "operator",
          "type": "address"
        },
        {
          "internalType": "bool",
          "name": "approved",
          "type": "bool"
        }
      ],
      "name": "setApprovalForAll",
      "outputs": [],
      "stateMutability": "nonpayable",
      "type": "function"
    },
    {
      "inputs": [
        {
          "internalType": "string",
          "name": "_baseURI1",
          "type": "string"
        }
      ],
      "name": "setBaseURI",
      "outputs": [],
      "stateMutability": "nonpayable",
      "type": "function"
    },
    {
      "inputs": [
        {
          "internalType": "bool",
          "name": "_isPublicSaleActive",
          "type": "bool"
        }
      ],
      "name": "setIsPublicSaleActive",
      "outputs": [],
      "stateMutability": "nonpayable",
      "type": "function"
    },
    {
      "inputs": [
        {
          "internalType": "uint256",
          "name": "_maxNFTs2",
          "type": "uint256"
        }
      ],
      "name": "setMaxNFTsInTOTALCollection",
      "outputs": [],
      "stateMutability": "nonpayable",
      "type": "function"
    },
    {
      "inputs": [
        {
          "internalType": "uint256",
          "name": "_PUBLIC_SALE_PRICE",
          "type": "uint256"
        }
      ],
      "name": "setPUBLIC_SALE_PRICEinEther",
      "outputs": [],
      "stateMutability": "nonpayable",
      "type": "function"
    },
    {
      "inputs": [
        {
          "internalType": "bool",
          "name": "_REVEAL",
          "type": "bool"
        }
      ],
      "name": "setREVEAL",
      "outputs": [],
      "stateMutability": "nonpayable",
      "type": "function"
    },
    {
      "inputs": [
        {
          "internalType": "string",
          "name": "_verificationHash",
          "type": "string"
        }
      ],
      "name": "setVerificationHash",
      "outputs": [],
      "stateMutability": "nonpayable",
      "type": "function"
    },
    {
      "inputs": [
        {
          "internalType": "bytes4",
          "name": "interfaceId",
          "type": "bytes4"
        }
      ],
      "name": "supportsInterface",
      "outputs": [
        {
          "internalType": "bool",
          "name": "",
          "type": "bool"
        }
      ],
      "stateMutability": "view",
      "type": "function"
    },
    {
      "inputs": [],
      "name": "symbol",
      "outputs": [
        {
          "internalType": "string",
          "name": "",
          "type": "string"
        }
      ],
      "stateMutability": "view",
      "type": "function"
    },
    {
      "inputs": [
        {
          "internalType": "uint256",
          "name": "tokenId",
          "type": "uint256"
        }
      ],
      "name": "tokenHasBeenMigrated",
      "outputs": [
        {
          "internalType": "bool",
          "name": "",
          "type": "bool"
        }
      ],
      "stateMutability": "view",
      "type": "function"
    },
    {
      "inputs": [
        {
          "internalType": "uint256",
          "name": "tokenId",
          "type": "uint256"
        }
      ],
      "name": "tokenURI",
      "outputs": [
        {
          "internalType": "string",
          "name": "",
          "type": "string"
        }
      ],
      "stateMutability": "view",
      "type": "function"
    },
    {
      "inputs": [
        {
          "internalType": "address",
          "name": "from",
          "type": "address"
        },
        {
          "internalType": "address",
          "name": "to",
          "type": "address"
        },
        {
          "internalType": "uint256",
          "name": "tokenId",
          "type": "uint256"
        }
      ],
      "name": "transferFrom",
      "outputs": [],
      "stateMutability": "nonpayable",
      "type": "function"
    },
    {
      "inputs": [
        {
          "internalType": "address",
          "name": "newOwner",
          "type": "address"
        }
      ],
      "name": "transferOwnership",
      "outputs": [],
      "stateMutability": "nonpayable",
      "type": "function"
    },
    {
      "inputs": [],
      "name": "v1MintedSupply",
      "outputs": [
        {
          "internalType": "uint256",
          "name": "",
          "type": "uint256"
        }
      ],
      "stateMutability": "view",
      "type": "function"
    },
    {
      "inputs": [],
      "name": "verificationHash",
      "outputs": [
        {
          "internalType": "string",
          "name": "",
          "type": "string"
        }
      ],
      "stateMutability": "view",
      "type": "function"
    },
    {
      "inputs": [],
      "name": "withdraw",
      "outputs": [],
      "stateMutability": "nonpayable",
      "type": "function"
    },
    {
      "inputs": [
        {
          "internalType": "contract IERC20",
          "name": "token",
          "type": "address"
        }
      ],
      "name": "withdrawTokens",
      "outputs": [],
      "stateMutability": "nonpayable",
      "type": "function"
    }
  ],
  "bytecode": "0x608060405266d529ae9e860000600c553480156200001c57600080fd5b506040516200617f3803806200617f833981810160405281019062000042919062000b2c565b6040518060400160405280600b81526020017f4d657461204d6f67756c730000000000000000000000000000000000000000008152506040518060400160405280600581526020017f4d4f47554c0000000000000000000000000000000000000000000000000000008152508160009080519060200190620000c692919062000982565b508060019080519060200190620000df92919062000982565b50505062000102620000f6620002ff60201b60201c565b6200030760201b60201c565b60016007819055506000600860006101000a81548160ff02191690831515021790555086600b8190555085600990805190602001906200014492919062000982565b5083600d60016101000a81548160ff02191690831515021790555084600d60006101000a81548160ff02191690831515021790555081600e8190555081600f81905550600073ffffffffffffffffffffffffffffffffffffffff168373ffffffffffffffffffffffffffffffffffffffff1614620001fe5782600d60026101000a81548173ffffffffffffffffffffffffffffffffffffffff021916908373ffffffffffffffffffffffffffffffffffffffff1602179055505b6000600190505b818111620002f157600581116200027a57600060018262000227919062000eb6565b600b5462000236919062000eb6565b90506200024a3382620003cd60201b60201c565b601281908060018154018082558091505060019003906000526020600020016000909190919091505550620002cb565b60006200028c620003f360201b60201c565b9050620002a03382620003cd60201b60201c565b6012819080600181540180825580915050600190039060005260206000200160009091909190915055505b620002db6200046260201b60201c565b8080620002e89062001009565b91505062000205565b505050505050505062001227565b600033905090565b6000600660009054906101000a900473ffffffffffffffffffffffffffffffffffffffff16905081600660006101000a81548173ffffffffffffffffffffffffffffffffffffffff021916908373ffffffffffffffffffffffffffffffffffffffff1602179055508173ffffffffffffffffffffffffffffffffffffffff168173ffffffffffffffffffffffffffffffffffffffff167f8be0079c531659141344cd1fd0a4f28419497f9722a3daafe3b4186f6b6457e060405160405180910390a35050565b620003ef828260405180602001604052806000815250620004c760201b60201c565b5050565b6000600b54600e54106200043e576040517f08c379a0000000000000000000000000000000000000000000000000000000008152600401620004359062000dab565b60405180910390fd5b60016005600e5462000451919062000eb6565b6200045d919062000e59565b905090565b600b54600e5410620004ab576040517f08c379a0000000000000000000000000000000000000000000000000000000008152600401620004a29062000dab565b60405180910390fd5b600e6000815480929190620004c09062001009565b9190505550565b620004d983836200053560201b60201c565b620004ee60008484846200072f60201b60201c565b62000530576040517f08c379a0000000000000000000000000000000000000000000000000000000008152600401620005279062000d45565b60405180910390fd5b505050565b600073ffffffffffffffffffffffffffffffffffffffff168273ffffffffffffffffffffffffffffffffffffffff161415620005a8576040517f08c379a00000000000000000000000000000000000000000000000000000000081526004016200059f9062000d89565b60405180910390fd5b620005b981620008e960201b60201c565b15620005fc576040517f08c379a0000000000000000000000000000000000000000000000000000000008152600401620005f39062000d67565b60405180910390fd5b62000610600083836200095560201b60201c565b6001600360008473ffffffffffffffffffffffffffffffffffffffff1673ffffffffffffffffffffffffffffffffffffffff168152602001908152602001600020600082825462000662919062000e59565b92505081905550816002600083815260200190815260200160002060006101000a81548173ffffffffffffffffffffffffffffffffffffffff021916908373ffffffffffffffffffffffffffffffffffffffff160217905550808273ffffffffffffffffffffffffffffffffffffffff16600073ffffffffffffffffffffffffffffffffffffffff167fddf252ad1be2c89b69c2b068fc378daa952ba7f163c4a11628f55a4df523b3ef60405160405180910390a46200072b600083836200095a60201b60201c565b5050565b60006200075d8473ffffffffffffffffffffffffffffffffffffffff166200095f60201b620022621760201c565b15620008dc578373ffffffffffffffffffffffffffffffffffffffff1663150b7a026200078f620002ff60201b60201c565b8786866040518563ffffffff1660e01b8152600401620007b3949392919062000cf1565b602060405180830381600087803b158015620007ce57600080fd5b505af19250505080156200080257506040513d601f19601f82011682018060405250810190620007ff919062000b00565b60015b6200088b573d806000811462000835576040519150601f19603f3d011682016040523d82523d6000602084013e6200083a565b606091505b5060008151141562000883576040517f08c379a00000000000000000000000000000000000000000000000000000000081526004016200087a9062000d45565b60405180910390fd5b805181602001fd5b63150b7a0260e01b7bffffffffffffffffffffffffffffffffffffffffffffffffffffffff1916817bffffffffffffffffffffffffffffffffffffffffffffffffffffffff191614915050620008e1565b600190505b949350505050565b60008073ffffffffffffffffffffffffffffffffffffffff166002600084815260200190815260200160002060009054906101000a900473ffffffffffffffffffffffffffffffffffffffff1673ffffffffffffffffffffffffffffffffffffffff1614159050919050565b505050565b505050565b6000808273ffffffffffffffffffffffffffffffffffffffff163b119050919050565b828054620009909062000f9d565b90600052602060002090601f016020900481019282620009b4576000855562000a00565b82601f10620009cf57805160ff191683800117855562000a00565b8280016001018555821562000a00579182015b82811115620009ff578251825591602001919060010190620009e2565b5b50905062000a0f919062000a13565b5090565b5b8082111562000a2e57600081600090555060010162000a14565b5090565b600062000a4962000a438462000df6565b62000dcd565b90508281526020810184848401111562000a6257600080fd5b62000a6f84828562000f67565b509392505050565b60008151905062000a8881620011bf565b92915050565b60008151905062000a9f81620011d9565b92915050565b60008151905062000ab681620011f3565b92915050565b600082601f83011262000ace57600080fd5b815162000ae084826020860162000a32565b91505092915050565b60008151905062000afa816200120d565b92915050565b60006020828403121562000b1357600080fd5b600062000b238482850162000aa5565b91505092915050565b600080600080600080600060e0888a03121562000b4857600080fd5b600062000b588a828b0162000ae9565b975050602088015167ffffffffffffffff81111562000b7657600080fd5b62000b848a828b0162000abc565b965050604062000b978a828b0162000a8e565b955050606062000baa8a828b0162000a8e565b945050608062000bbd8a828b0162000a77565b93505060a062000bd08a828b0162000ae9565b92505060c062000be38a828b0162000ae9565b91505092959891949750929550565b62000bfd8162000ef1565b82525050565b600062000c108262000e2c565b62000c1c818562000e37565b935062000c2e81856020860162000f67565b62000c3981620010e4565b840191505092915050565b600062000c5360328362000e48565b915062000c6082620010f5565b604082019050919050565b600062000c7a601c8362000e48565b915062000c878262001144565b602082019050919050565b600062000ca160208362000e48565b915062000cae826200116d565b602082019050919050565b600062000cc860198362000e48565b915062000cd58262001196565b602082019050919050565b62000ceb8162000f5d565b82525050565b600060808201905062000d08600083018762000bf2565b62000d17602083018662000bf2565b62000d26604083018562000ce0565b818103606083015262000d3a818462000c03565b905095945050505050565b6000602082019050818103600083015262000d608162000c44565b9050919050565b6000602082019050818103600083015262000d828162000c6b565b9050919050565b6000602082019050818103600083015262000da48162000c92565b9050919050565b6000602082019050818103600083015262000dc68162000cb9565b9050919050565b600062000dd962000dec565b905062000de7828262000fd3565b919050565b6000604051905090565b600067ffffffffffffffff82111562000e145762000e13620010b5565b5b62000e1f82620010e4565b9050602081019050919050565b600081519050919050565b600082825260208201905092915050565b600082825260208201905092915050565b600062000e668262000f5d565b915062000e738362000f5d565b9250827fffffffffffffffffffffffffffffffffffffffffffffffffffffffffffffffff0382111562000eab5762000eaa62001057565b5b828201905092915050565b600062000ec38262000f5d565b915062000ed08362000f5d565b92508282101562000ee65762000ee562001057565b5b828203905092915050565b600062000efe8262000f3d565b9050919050565b60008115159050919050565b60007fffffffff0000000000000000000000000000000000000000000000000000000082169050919050565b600073ffffffffffffffffffffffffffffffffffffffff82169050919050565b6000819050919050565b60005b8381101562000f8757808201518184015260208101905062000f6a565b8381111562000f97576000848401525b50505050565b6000600282049050600182168062000fb657607f821691505b6020821081141562000fcd5762000fcc62001086565b5b50919050565b62000fde82620010e4565b810181811067ffffffffffffffff82111715620010005762000fff620010b5565b5b80604052505050565b6000620010168262000f5d565b91507fffffffffffffffffffffffffffffffffffffffffffffffffffffffffffffffff8214156200104c576200104b62001057565b5b600182019050919050565b7f4e487b7100000000000000000000000000000000000000000000000000000000600052601160045260246000fd5b7f4e487b7100000000000000000000000000000000000000000000000000000000600052602260045260246000fd5b7f4e487b7100000000000000000000000000000000000000000000000000000000600052604160045260246000fd5b6000601f19601f8301169050919050565b7f4552433732313a207472616e7366657220746f206e6f6e20455243373231526560008201527f63656976657220696d706c656d656e7465720000000000000000000000000000602082015250565b7f4552433732313a20746f6b656e20616c7265616479206d696e74656400000000600082015250565b7f4552433732313a206d696e7420746f20746865207a65726f2061646472657373600082015250565b7f416c6c204e4654732068617665206265656e206d696e74656400000000000000600082015250565b620011ca8162000ef1565b8114620011d657600080fd5b50565b620011e48162000f05565b8114620011f057600080fd5b50565b620011fe8162000f11565b81146200120a57600080fd5b50565b620012188162000f5d565b81146200122457600080fd5b50565b614f4880620012376000396000f3fe6080604052600436106102665760003560e01c80635c975abb11610144578063995acb6a116100b6578063c87b56dd1161007a578063c87b56dd146108fa578063d7fc689014610937578063dad03ff814610962578063e6f831d51461098b578063e985e9c5146109b6578063f2fde38b146109f357610266565b8063995acb6a14610836578063a0712d6814610861578063a22cb4651461087d578063b88d4fde146108a6578063c0c36a37146108cf57610266565b8063715018a611610108578063715018a614610748578063771282f61461075f57806382651bd01461078a57806383c4c00d146107b55780638da5cb5b146107e057806395d89b411461080b57610266565b80635c975abb1461064f5780636352211e1461067a578063679657fb146106b757806370a08231146106e0578063714c53981461071d57610266565b806328c77820116101dd5780633a416afd116101a15780633a416afd146105675780633ccfd60b1461059257806342842e0e146105a957806349df728c146105d25780634e9e1ec6146105fb57806355f804b31461062657610266565b806328c778201461048457806328cad13d146104ad57806330503c4e146104d657806332db9d9214610501578063379607f51461053e57610266565b8063095ea7b31161022f578063095ea7b3146103785780631b2cd47e146103a15780631b3d26f4146103ca5780631e84c4131461040757806323b872dd1461043257806324f985e91461045b57610266565b806287fefb1461026b57806301ffc9a7146102a857806306fdde03146102e557806307e89ec014610310578063081812fc1461033b575b600080fd5b34801561027757600080fd5b50610292600480360381019061028d9190613824565b610a1c565b60405161029f9190613f0a565b60405180910390f35b3480156102b457600080fd5b506102cf60048036038101906102ca9190613768565b610a8b565b6040516102dc9190613f0a565b60405180910390f35b3480156102f157600080fd5b506102fa610b6d565b6040516103079190613f40565b60405180910390f35b34801561031c57600080fd5b50610325610bff565b6040516103329190614292565b60405180910390f35b34801561034757600080fd5b50610362600480360381019061035d9190613824565b610c05565b60405161036f9190613e21565b60405180910390f35b34801561038457600080fd5b5061039f600480360381019061039a9190613699565b610c8a565b005b3480156103ad57600080fd5b506103c860048036038101906103c39190613824565b610da2565b005b3480156103d657600080fd5b506103f160048036038101906103ec9190613824565b610e28565b6040516103fe9190614292565b60405180910390f35b34801561041357600080fd5b5061041c610e4c565b6040516104299190613f0a565b60405180910390f35b34801561043e57600080fd5b5061045960048036038101906104549190613593565b610e5f565b005b34801561046757600080fd5b50610482600480360381019061047d91906137e3565b610ebf565b005b34801561049057600080fd5b506104ab60048036038101906104a691906136d5565b610f55565b005b3480156104b957600080fd5b506104d460048036038101906104cf9190613716565b611225565b005b3480156104e257600080fd5b506104eb6112be565b6040516104f89190613f25565b60405180910390f35b34801561050d57600080fd5b5061052860048036038101906105239190613824565b6112e4565b6040516105359190613f0a565b60405180910390f35b34801561054a57600080fd5b5061056560048036038101906105609190613824565b611304565b005b34801561057357600080fd5b5061057c611450565b6040516105899190613ee8565b60405180910390f35b34801561059e57600080fd5b506105a76114a8565b005b3480156105b557600080fd5b506105d060048036038101906105cb9190613593565b611573565b005b3480156105de57600080fd5b506105f960048036038101906105f491906137ba565b611593565b005b34801561060757600080fd5b5061061061172e565b60405161061d9190614292565b60405180910390f35b34801561063257600080fd5b5061064d600480360381019061064891906137e3565b611734565b005b34801561065b57600080fd5b506106646117ca565b6040516106719190613f0a565b60405180910390f35b34801561068657600080fd5b506106a1600480360381019061069c9190613824565b6117e1565b6040516106ae9190613e21565b60405180910390f35b3480156106c357600080fd5b506106de60048036038101906106d99190613824565b611893565b005b3480156106ec57600080fd5b5061070760048036038101906107029190613505565b611919565b6040516107149190614292565b60405180910390f35b34801561072957600080fd5b506107326119d1565b60405161073f9190613f40565b60405180910390f35b34801561075457600080fd5b5061075d611a63565b005b34801561076b57600080fd5b50610774611aeb565b6040516107819190614292565b60405180910390f35b34801561079657600080fd5b5061079f611af1565b6040516107ac9190613f0a565b60405180910390f35b3480156107c157600080fd5b506107ca611b04565b6040516107d79190614292565b60405180910390f35b3480156107ec57600080fd5b506107f5611b1a565b6040516108029190613e21565b60405180910390f35b34801561081757600080fd5b50610820611b44565b60405161082d9190613f40565b60405180910390f35b34801561084257600080fd5b5061084b611bd6565b6040516108589190613ee8565b60405180910390f35b61087b60048036038101906108769190613824565b611c2e565b005b34801561088957600080fd5b506108a4600480360381019061089f919061365d565b611e03565b005b3480156108b257600080fd5b506108cd60048036038101906108c891906135e2565b611e19565b005b3480156108db57600080fd5b506108e4611e7b565b6040516108f19190613f40565b60405180910390f35b34801561090657600080fd5b50610921600480360381019061091c9190613824565b611f09565b60405161092e9190613f40565b60405180910390f35b34801561094357600080fd5b5061094c61202d565b6040516109599190614292565b60405180910390f35b34801561096e57600080fd5b5061098960048036038101906109849190613716565b612037565b005b34801561099757600080fd5b506109a06120d0565b6040516109ad9190614292565b60405180910390f35b3480156109c257600080fd5b506109dd60048036038101906109d89190613557565b6120d6565b6040516109ea9190613f0a565b60405180910390f35b3480156109ff57600080fd5b50610a1a6004803603810190610a159190613505565b61216a565b005b6000600f54821115610a63576040517f08c379a0000000000000000000000000000000000000000000000000000000008152600401610a5a90614212565b60405180910390fd5b6011600083815260200190815260200160002060009054906101000a900460ff169050919050565b60007f80ac58cd000000000000000000000000000000000000000000000000000000007bffffffffffffffffffffffffffffffffffffffffffffffffffffffff1916827bffffffffffffffffffffffffffffffffffffffffffffffffffffffff19161480610b5657507f5b5e139f000000000000000000000000000000000000000000000000000000007bffffffffffffffffffffffffffffffffffffffffffffffffffffffff1916827bffffffffffffffffffffffffffffffffffffffffffffffffffffffff1916145b80610b665750610b6582612285565b5b9050919050565b606060008054610b7c906145f2565b80601f0160208091040260200160405190810160405280929190818152602001828054610ba8906145f2565b8015610bf55780601f10610bca57610100808354040283529160200191610bf5565b820191906000526020600020905b815481529060010190602001808311610bd857829003601f168201915b5050505050905090565b600c5481565b6000610c10826122ef565b610c4f576040517f08c379a0000000000000000000000000000000000000000000000000000000008152600401610c4690614172565b60405180910390fd5b6004600083815260200190815260200160002060009054906101000a900473ffffffffffffffffffffffffffffffffffffffff169050919050565b6000610c95826117e1565b90508073ffffffffffffffffffffffffffffffffffffffff168373ffffffffffffffffffffffffffffffffffffffff161415610d06576040517f08c379a0000000000000000000000000000000000000000000000000000000008152600401610cfd906141b2565b60405180910390fd5b8073ffffffffffffffffffffffffffffffffffffffff16610d2561235b565b73ffffffffffffffffffffffffffffffffffffffff161480610d545750610d5381610d4e61235b565b6120d6565b5b610d93576040517f08c379a0000000000000000000000000000000000000000000000000000000008152600401610d8a90614092565b60405180910390fd5b610d9d8383612363565b505050565b610daa61235b565b73ffffffffffffffffffffffffffffffffffffffff16610dc8611b1a565b73ffffffffffffffffffffffffffffffffffffffff1614610e1e576040517f08c379a0000000000000000000000000000000000000000000000000000000008152600401610e1590614192565b60405180910390fd5b80600c8190555050565b60108181548110610e3857600080fd5b906000526020600020016000915090505481565b600d60009054906101000a900460ff1681565b610e70610e6a61235b565b8261241c565b610eaf576040517f08c379a0000000000000000000000000000000000000000000000000000000008152600401610ea6906141f2565b60405180910390fd5b610eba8383836124fa565b505050565b610ec761235b565b73ffffffffffffffffffffffffffffffffffffffff16610ee5611b1a565b73ffffffffffffffffffffffffffffffffffffffff1614610f3b576040517f08c379a0000000000000000000000000000000000000000000000000000000008152600401610f3290614192565b60405180910390fd5b80600a9080519060200190610f5192919061323f565b5050565b60026007541415610f9b576040517f08c379a0000000000000000000000000000000000000000000000000000000008152600401610f9290614252565b60405180910390fd5b6002600781905550610fab6117ca565b15610feb576040517f08c379a0000000000000000000000000000000000000000000000000000000008152600401610fe290614072565b60405180910390fd5b6000815190506110306040518060400160405280601281526020017f6f776e6564546f6b656e732e6c656e677468000000000000000000000000000081525082612761565b60005b81811015611218576000838281518110611076577f4e487b7100000000000000000000000000000000000000000000000000000000600052603260045260246000fd5b602002602001015190506110bf6040518060400160405280600d81526020017f746f6b656e4964546f4d696e740000000000000000000000000000000000000081525082612761565b600f54811115611104576040517f08c379a00000000000000000000000000000000000000000000000000000000081526004016110fb906141d2565b60405180910390fd5b61110e33826127fd565b1561120457600d60029054906101000a900473ffffffffffffffffffffffffffffffffffffffff1673ffffffffffffffffffffffffffffffffffffffff166323b872dd3330846040518463ffffffff1660e01b815260040161117293929190613e3c565b600060405180830381600087803b15801561118c57600080fd5b505af11580156111a0573d6000803e3d6000fd5b505050506111ae338261291e565b601081908060018154018082558091505060019003906000526020600020016000909190919091505560016011600083815260200190815260200160002060006101000a81548160ff0219169083151502179055505b50808061121090614655565b915050611033565b5050600160078190555050565b61122d61235b565b73ffffffffffffffffffffffffffffffffffffffff1661124b611b1a565b73ffffffffffffffffffffffffffffffffffffffff16146112a1576040517f08c379a000000000000000000000000000000000000000000000000000000000815260040161129890614192565b60405180910390fd5b80600d60006101000a81548160ff02191690831515021790555050565b600d60029054906101000a900473ffffffffffffffffffffffffffffffffffffffff1681565b60116020528060005260406000206000915054906101000a900460ff1681565b6002600754141561134a576040517f08c379a000000000000000000000000000000000000000000000000000000000815260040161134190614252565b60405180910390fd5b600260078190555061135a6117ca565b1561139a576040517f08c379a000000000000000000000000000000000000000000000000000000000815260040161139190614072565b60405180910390fd5b6113a433826127fd565b1561144557600d60029054906101000a900473ffffffffffffffffffffffffffffffffffffffff1673ffffffffffffffffffffffffffffffffffffffff166323b872dd3330846040518463ffffffff1660e01b815260040161140893929190613e3c565b600060405180830381600087803b15801561142257600080fd5b505af1158015611436573d6000803e3d6000fd5b50505050611444338261291e565b5b600160078190555050565b6060601280548060200260200160405190810160405280929190818152602001828054801561149e57602002820191906000526020600020905b81548152602001906001019080831161148a575b5050505050905090565b6114b061235b565b73ffffffffffffffffffffffffffffffffffffffff166114ce611b1a565b73ffffffffffffffffffffffffffffffffffffffff1614611524576040517f08c379a000000000000000000000000000000000000000000000000000000000815260040161151b90614192565b60405180910390fd5b60004790503373ffffffffffffffffffffffffffffffffffffffff166108fc829081150290604051600060405180830381858888f1935050505015801561156f573d6000803e3d6000fd5b5050565b61158e83838360405180602001604052806000815250611e19565b505050565b61159b61235b565b73ffffffffffffffffffffffffffffffffffffffff166115b9611b1a565b73ffffffffffffffffffffffffffffffffffffffff161461160f576040517f08c379a000000000000000000000000000000000000000000000000000000000815260040161160690614192565b60405180910390fd5b60008173ffffffffffffffffffffffffffffffffffffffff166370a08231306040518263ffffffff1660e01b815260040161164a9190613e21565b60206040518083038186803b15801561166257600080fd5b505afa158015611676573d6000803e3d6000fd5b505050506040513d601f19601f8201168201806040525081019061169a919061384d565b90508173ffffffffffffffffffffffffffffffffffffffff1663a9059cbb33836040518363ffffffff1660e01b81526004016116d7929190613ebf565b602060405180830381600087803b1580156116f157600080fd5b505af1158015611705573d6000803e3d6000fd5b505050506040513d601f19601f82011682018060405250810190611729919061373f565b505050565b600b5481565b61173c61235b565b73ffffffffffffffffffffffffffffffffffffffff1661175a611b1a565b73ffffffffffffffffffffffffffffffffffffffff16146117b0576040517f08c379a00000000000000000000000000000000000000000000000000000000081526004016117a790614192565b60405180910390fd5b80600990805190602001906117c692919061323f565b5050565b6000600860009054906101000a900460ff16905090565b6000806002600084815260200190815260200160002060009054906101000a900473ffffffffffffffffffffffffffffffffffffffff169050600073ffffffffffffffffffffffffffffffffffffffff168173ffffffffffffffffffffffffffffffffffffffff16141561188a576040517f08c379a0000000000000000000000000000000000000000000000000000000008152600401611881906140f2565b60405180910390fd5b80915050919050565b61189b61235b565b73ffffffffffffffffffffffffffffffffffffffff166118b9611b1a565b73ffffffffffffffffffffffffffffffffffffffff161461190f576040517f08c379a000000000000000000000000000000000000000000000000000000000815260040161190690614192565b60405180910390fd5b80600b8190555050565b60008073ffffffffffffffffffffffffffffffffffffffff168273ffffffffffffffffffffffffffffffffffffffff16141561198a576040517f08c379a0000000000000000000000000000000000000000000000000000000008152600401611981906140d2565b60405180910390fd5b600360008373ffffffffffffffffffffffffffffffffffffffff1673ffffffffffffffffffffffffffffffffffffffff168152602001908152602001600020549050919050565b6060600980546119e0906145f2565b80601f0160208091040260200160405190810160405280929190818152602001828054611a0c906145f2565b8015611a595780601f10611a2e57610100808354040283529160200191611a59565b820191906000526020600020905b815481529060010190602001808311611a3c57829003601f168201915b5050505050905090565b611a6b61235b565b73ffffffffffffffffffffffffffffffffffffffff16611a89611b1a565b73ffffffffffffffffffffffffffffffffffffffff1614611adf576040517f08c379a0000000000000000000000000000000000000000000000000000000008152600401611ad690614192565b60405180910390fd5b611ae9600061293c565b565b600e5481565b600d60019054906101000a900460ff1681565b60006005600e54611b1591906144d2565b905090565b6000600660009054906101000a900473ffffffffffffffffffffffffffffffffffffffff16905090565b606060018054611b53906145f2565b80601f0160208091040260200160405190810160405280929190818152602001828054611b7f906145f2565b8015611bcc5780601f10611ba157610100808354040283529160200191611bcc565b820191906000526020600020905b815481529060010190602001808311611baf57829003601f168201915b5050505050905090565b60606010805480602002602001604051908101604052809291908181526020018280548015611c2457602002820191906000526020600020905b815481526020019060010190808311611c10575b5050505050905090565b60026007541415611c74576040517f08c379a0000000000000000000000000000000000000000000000000000000008152600401611c6b90614252565b60405180910390fd5b6002600781905550600c5481348183611c8d9190614478565b14611ccd576040517f08c379a0000000000000000000000000000000000000000000000000000000008152600401611cc490614232565b60405180910390fd5b600d60009054906101000a900460ff16611d1c576040517f08c379a0000000000000000000000000000000000000000000000000000000008152600401611d1390614272565b60405180910390fd5b82600b5481600e54611d2e91906143f1565b1115611d6f576040517f08c379a0000000000000000000000000000000000000000000000000000000008152600401611d6690614112565b60405180910390fd5b611d776117ca565b15611db7576040517f08c379a0000000000000000000000000000000000000000000000000000000008152600401611dae90614072565b60405180910390fd5b60005b84811015611df4576000611dcc612a02565b9050611dd8338261291e565b611de0612a6a565b508080611dec90614655565b915050611dba565b50505050600160078190555050565b611e15611e0e61235b565b8383612aca565b5050565b611e2a611e2461235b565b8361241c565b611e69576040517f08c379a0000000000000000000000000000000000000000000000000000000008152600401611e60906141f2565b60405180910390fd5b611e7584848484612c37565b50505050565b600a8054611e88906145f2565b80601f0160208091040260200160405190810160405280929190818152602001828054611eb4906145f2565b8015611f015780601f10611ed657610100808354040283529160200191611f01565b820191906000526020600020905b815481529060010190602001808311611ee457829003601f168201915b505050505081565b6060611f14826122ef565b611f53576040517f08c379a0000000000000000000000000000000000000000000000000000000008152600401611f4a906140b2565b60405180910390fd5b600d60019054906101000a900460ff1615611f9a576009611f7383612c93565b604051602001611f84929190613de7565b6040516020818303038152906040529050612028565b60098054611fa7906145f2565b80601f0160208091040260200160405190810160405280929190818152602001828054611fd3906145f2565b80156120205780601f10611ff557610100808354040283529160200191612020565b820191906000526020600020905b81548152906001019060200180831161200357829003601f168201915b505050505090505b919050565b6000600e54905090565b61203f61235b565b73ffffffffffffffffffffffffffffffffffffffff1661205d611b1a565b73ffffffffffffffffffffffffffffffffffffffff16146120b3576040517f08c379a00000000000000000000000000000000000000000000000000000000081526004016120aa90614192565b60405180910390fd5b80600d60016101000a81548160ff02191690831515021790555050565b600f5481565b6000600560008473ffffffffffffffffffffffffffffffffffffffff1673ffffffffffffffffffffffffffffffffffffffff16815260200190815260200160002060008373ffffffffffffffffffffffffffffffffffffffff1673ffffffffffffffffffffffffffffffffffffffff16815260200190815260200160002060009054906101000a900460ff16905092915050565b61217261235b565b73ffffffffffffffffffffffffffffffffffffffff16612190611b1a565b73ffffffffffffffffffffffffffffffffffffffff16146121e6576040517f08c379a00000000000000000000000000000000000000000000000000000000081526004016121dd90614192565b60405180910390fd5b600073ffffffffffffffffffffffffffffffffffffffff168173ffffffffffffffffffffffffffffffffffffffff161415612256576040517f08c379a000000000000000000000000000000000000000000000000000000000815260040161224d90613fb2565b60405180910390fd5b61225f8161293c565b50565b6000808273ffffffffffffffffffffffffffffffffffffffff163b119050919050565b60007f01ffc9a7000000000000000000000000000000000000000000000000000000007bffffffffffffffffffffffffffffffffffffffffffffffffffffffff1916827bffffffffffffffffffffffffffffffffffffffffffffffffffffffff1916149050919050565b60008073ffffffffffffffffffffffffffffffffffffffff166002600084815260200190815260200160002060009054906101000a900473ffffffffffffffffffffffffffffffffffffffff1673ffffffffffffffffffffffffffffffffffffffff1614159050919050565b600033905090565b816004600083815260200190815260200160002060006101000a81548173ffffffffffffffffffffffffffffffffffffffff021916908373ffffffffffffffffffffffffffffffffffffffff160217905550808273ffffffffffffffffffffffffffffffffffffffff166123d6836117e1565b73ffffffffffffffffffffffffffffffffffffffff167f8c5be1e5ebec7d5bd14f71427d1e84f3dd0314c0f7b2291e5b200ac8c7c3b92560405160405180910390a45050565b6000612427826122ef565b612466576040517f08c379a000000000000000000000000000000000000000000000000000000000815260040161245d90614052565b60405180910390fd5b6000612471836117e1565b90508073ffffffffffffffffffffffffffffffffffffffff168473ffffffffffffffffffffffffffffffffffffffff1614806124e057508373ffffffffffffffffffffffffffffffffffffffff166124c884610c05565b73ffffffffffffffffffffffffffffffffffffffff16145b806124f157506124f081856120d6565b5b91505092915050565b8273ffffffffffffffffffffffffffffffffffffffff1661251a826117e1565b73ffffffffffffffffffffffffffffffffffffffff1614612570576040517f08c379a000000000000000000000000000000000000000000000000000000000815260040161256790613fd2565b60405180910390fd5b600073ffffffffffffffffffffffffffffffffffffffff168273ffffffffffffffffffffffffffffffffffffffff1614156125e0576040517f08c379a00000000000000000000000000000000000000000000000000000000081526004016125d790614012565b60405180910390fd5b6125eb838383612e40565b6125f6600082612363565b6001600360008573ffffffffffffffffffffffffffffffffffffffff1673ffffffffffffffffffffffffffffffffffffffff168152602001908152602001600020600082825461264691906144d2565b925050819055506001600360008473ffffffffffffffffffffffffffffffffffffffff1673ffffffffffffffffffffffffffffffffffffffff168152602001908152602001600020600082825461269d91906143f1565b92505081905550816002600083815260200190815260200160002060006101000a81548173ffffffffffffffffffffffffffffffffffffffff021916908373ffffffffffffffffffffffffffffffffffffffff160217905550808273ffffffffffffffffffffffffffffffffffffffff168473ffffffffffffffffffffffffffffffffffffffff167fddf252ad1be2c89b69c2b068fc378daa952ba7f163c4a11628f55a4df523b3ef60405160405180910390a461275c838383612e45565b505050565b6127f98282604051602401612777929190613f62565b6040516020818303038152906040527f9710a9d0000000000000000000000000000000000000000000000000000000007bffffffffffffffffffffffffffffffffffffffffffffffffffffffff19166020820180517bffffffffffffffffffffffffffffffffffffffffffffffffffffffff8381831617835250505050612e4a565b5050565b6000600d60029054906101000a900473ffffffffffffffffffffffffffffffffffffffff1673ffffffffffffffffffffffffffffffffffffffff16636352211e836040518263ffffffff1660e01b815260040161285a9190614292565b60206040518083038186803b15801561287257600080fd5b505afa9250505080156128a357506040513d601f19601f820116820180604052508101906128a0919061352e565b60015b6128e5576128af61478b565b806308c379a014156128d957506128c4614e09565b806128cf57506128db565b6000915050612918565b505b3d6000803e3d6000fd5b8073ffffffffffffffffffffffffffffffffffffffff168473ffffffffffffffffffffffffffffffffffffffff16149150505b92915050565b612938828260405180602001604052806000815250612e73565b5050565b6000600660009054906101000a900473ffffffffffffffffffffffffffffffffffffffff16905081600660006101000a81548173ffffffffffffffffffffffffffffffffffffffff021916908373ffffffffffffffffffffffffffffffffffffffff1602179055508173ffffffffffffffffffffffffffffffffffffffff168173ffffffffffffffffffffffffffffffffffffffff167f8be0079c531659141344cd1fd0a4f28419497f9722a3daafe3b4186f6b6457e060405160405180910390a35050565b6000600b54600e5410612a4a576040517f08c379a0000000000000000000000000000000000000000000000000000000008152600401612a4190614152565b60405180910390fd5b60016005600e54612a5b91906144d2565b612a6591906143f1565b905090565b600b54600e5410612ab0576040517f08c379a0000000000000000000000000000000000000000000000000000000008152600401612aa790614152565b60405180910390fd5b600e6000815480929190612ac390614655565b9190505550565b8173ffffffffffffffffffffffffffffffffffffffff168373ffffffffffffffffffffffffffffffffffffffff161415612b39576040517f08c379a0000000000000000000000000000000000000000000000000000000008152600401612b3090614032565b60405180910390fd5b80600560008573ffffffffffffffffffffffffffffffffffffffff1673ffffffffffffffffffffffffffffffffffffffff16815260200190815260200160002060008473ffffffffffffffffffffffffffffffffffffffff1673ffffffffffffffffffffffffffffffffffffffff16815260200190815260200160002060006101000a81548160ff0219169083151502179055508173ffffffffffffffffffffffffffffffffffffffff168373ffffffffffffffffffffffffffffffffffffffff167f17307eab39ab6107e8899845ad3d59bd9653f200f220920489ca2b5937696c3183604051612c2a9190613f0a565b60405180910390a3505050565b612c428484846124fa565b612c4e84848484612ece565b612c8d576040517f08c379a0000000000000000000000000000000000000000000000000000000008152600401612c8490613f92565b60405180910390fd5b50505050565b60606000821415612cdb576040518060400160405280600181526020017f30000000000000000000000000000000000000000000000000000000000000008152509050612e3b565b600082905060005b60008214612d0d578080612cf690614655565b915050600a82612d069190614447565b9150612ce3565b60008167ffffffffffffffff811115612d4f577f4e487b7100000000000000000000000000000000000000000000000000000000600052604160045260246000fd5b6040519080825280601f01601f191660200182016040528015612d815781602001600182028036833780820191505090505b5090505b60008514612e3457600182612d9a91906144d2565b9150600a85612da9919061469e565b6030612db591906143f1565b60f81b818381518110612df1577f4e487b7100000000000000000000000000000000000000000000000000000000600052603260045260246000fd5b60200101907effffffffffffffffffffffffffffffffffffffffffffffffffffffffffffff1916908160001a905350600a85612e2d9190614447565b9450612d85565b8093505050505b919050565b505050565b505050565b60008151905060006a636f6e736f6c652e6c6f679050602083016000808483855afa5050505050565b612e7d8383613065565b612e8a6000848484612ece565b612ec9576040517f08c379a0000000000000000000000000000000000000000000000000000000008152600401612ec090613f92565b60405180910390fd5b505050565b6000612eef8473ffffffffffffffffffffffffffffffffffffffff16612262565b15613058578373ffffffffffffffffffffffffffffffffffffffff1663150b7a02612f1861235b565b8786866040518563ffffffff1660e01b8152600401612f3a9493929190613e73565b602060405180830381600087803b158015612f5457600080fd5b505af1925050508015612f8557506040513d601f19601f82011682018060405250810190612f829190613791565b60015b613008573d8060008114612fb5576040519150601f19603f3d011682016040523d82523d6000602084013e612fba565b606091505b50600081511415613000576040517f08c379a0000000000000000000000000000000000000000000000000000000008152600401612ff790613f92565b60405180910390fd5b805181602001fd5b63150b7a0260e01b7bffffffffffffffffffffffffffffffffffffffffffffffffffffffff1916817bffffffffffffffffffffffffffffffffffffffffffffffffffffffff19161491505061305d565b600190505b949350505050565b600073ffffffffffffffffffffffffffffffffffffffff168273ffffffffffffffffffffffffffffffffffffffff1614156130d5576040517f08c379a00000000000000000000000000000000000000000000000000000000081526004016130cc90614132565b60405180910390fd5b6130de816122ef565b1561311e576040517f08c379a000000000000000000000000000000000000000000000000000000000815260040161311590613ff2565b60405180910390fd5b61312a60008383612e40565b6001600360008473ffffffffffffffffffffffffffffffffffffffff1673ffffffffffffffffffffffffffffffffffffffff168152602001908152602001600020600082825461317a91906143f1565b92505081905550816002600083815260200190815260200160002060006101000a81548173ffffffffffffffffffffffffffffffffffffffff021916908373ffffffffffffffffffffffffffffffffffffffff160217905550808273ffffffffffffffffffffffffffffffffffffffff16600073ffffffffffffffffffffffffffffffffffffffff167fddf252ad1be2c89b69c2b068fc378daa952ba7f163c4a11628f55a4df523b3ef60405160405180910390a461323b60008383612e45565b5050565b82805461324b906145f2565b90600052602060002090601f01602090048101928261326d57600085556132b4565b82601f1061328657805160ff19168380011785556132b4565b828001600101855582156132b4579182015b828111156132b3578251825591602001919060010190613298565b5b5090506132c191906132c5565b5090565b5b808211156132de5760008160009055506001016132c6565b5090565b60006132f56132f0846142d2565b6142ad565b9050808382526020820190508285602086028201111561331457600080fd5b60005b85811015613344578161332a88826134db565b845260208401935060208301925050600181019050613317565b5050509392505050565b600061336161335c846142fe565b6142ad565b90508281526020810184848401111561337957600080fd5b6133848482856145b0565b509392505050565b600061339f61339a8461432f565b6142ad565b9050828152602081018484840111156133b757600080fd5b6133c28482856145b0565b509392505050565b6000813590506133d981614e9f565b92915050565b6000815190506133ee81614e9f565b92915050565b600082601f83011261340557600080fd5b81356134158482602086016132e2565b91505092915050565b60008135905061342d81614eb6565b92915050565b60008151905061344281614eb6565b92915050565b60008135905061345781614ecd565b92915050565b60008151905061346c81614ecd565b92915050565b600082601f83011261348357600080fd5b813561349384826020860161334e565b91505092915050565b6000813590506134ab81614ee4565b92915050565b600082601f8301126134c257600080fd5b81356134d284826020860161338c565b91505092915050565b6000813590506134ea81614efb565b92915050565b6000815190506134ff81614efb565b92915050565b60006020828403121561351757600080fd5b6000613525848285016133ca565b91505092915050565b60006020828403121561354057600080fd5b600061354e848285016133df565b91505092915050565b6000806040838503121561356a57600080fd5b6000613578858286016133ca565b9250506020613589858286016133ca565b9150509250929050565b6000806000606084860312156135a857600080fd5b60006135b6868287016133ca565b93505060206135c7868287016133ca565b92505060406135d8868287016134db565b9150509250925092565b600080600080608085870312156135f857600080fd5b6000613606878288016133ca565b9450506020613617878288016133ca565b9350506040613628878288016134db565b925050606085013567ffffffffffffffff81111561364557600080fd5b61365187828801613472565b91505092959194509250565b6000806040838503121561367057600080fd5b600061367e858286016133ca565b925050602061368f8582860161341e565b9150509250929050565b600080604083850312156136ac57600080fd5b60006136ba858286016133ca565b92505060206136cb858286016134db565b9150509250929050565b6000602082840312156136e757600080fd5b600082013567ffffffffffffffff81111561370157600080fd5b61370d848285016133f4565b91505092915050565b60006020828403121561372857600080fd5b60006137368482850161341e565b91505092915050565b60006020828403121561375157600080fd5b600061375f84828501613433565b91505092915050565b60006020828403121561377a57600080fd5b600061378884828501613448565b91505092915050565b6000602082840312156137a357600080fd5b60006137b18482850161345d565b91505092915050565b6000602082840312156137cc57600080fd5b60006137da8482850161349c565b91505092915050565b6000602082840312156137f557600080fd5b600082013567ffffffffffffffff81111561380f57600080fd5b61381b848285016134b1565b91505092915050565b60006020828403121561383657600080fd5b6000613844848285016134db565b91505092915050565b60006020828403121561385f57600080fd5b600061386d848285016134f0565b91505092915050565b60006138828383613dc9565b60208301905092915050565b61389781614506565b82525050565b60006138a882614385565b6138b281856143b3565b93506138bd83614360565b8060005b838110156138ee5781516138d58882613876565b97506138e0836143a6565b9250506001810190506138c1565b5085935050505092915050565b61390481614518565b82525050565b600061391582614390565b61391f81856143c4565b935061392f8185602086016145bf565b613938816147ad565b840191505092915050565b61394c8161458c565b82525050565b600061395d8261439b565b61396781856143d5565b93506139778185602086016145bf565b613980816147ad565b840191505092915050565b60006139968261439b565b6139a081856143e6565b93506139b08185602086016145bf565b80840191505092915050565b600081546139c9816145f2565b6139d381866143e6565b945060018216600081146139ee57600181146139ff57613a32565b60ff19831686528186019350613a32565b613a0885614370565b60005b83811015613a2a57815481890152600182019150602081019050613a0b565b838801955050505b50505092915050565b6000613a486032836143d5565b9150613a53826147cb565b604082019050919050565b6000613a6b6026836143d5565b9150613a768261481a565b604082019050919050565b6000613a8e6025836143d5565b9150613a9982614869565b604082019050919050565b6000613ab1601c836143d5565b9150613abc826148b8565b602082019050919050565b6000613ad46024836143d5565b9150613adf826148e1565b604082019050919050565b6000613af76019836143d5565b9150613b0282614930565b602082019050919050565b6000613b1a602c836143d5565b9150613b2582614959565b604082019050919050565b6000613b3d6010836143d5565b9150613b48826149a8565b602082019050919050565b6000613b606038836143d5565b9150613b6b826149d1565b604082019050919050565b6000613b836011836143d5565b9150613b8e82614a20565b602082019050919050565b6000613ba6602a836143d5565b9150613bb182614a49565b604082019050919050565b6000613bc96029836143d5565b9150613bd482614a98565b604082019050919050565b6000613bec6021836143d5565b9150613bf782614ae7565b604082019050919050565b6000613c0f6020836143d5565b9150613c1a82614b36565b602082019050919050565b6000613c326019836143d5565b9150613c3d82614b5f565b602082019050919050565b6000613c55602c836143d5565b9150613c6082614b88565b604082019050919050565b6000613c786005836143e6565b9150613c8382614bd7565b600582019050919050565b6000613c9b6020836143d5565b9150613ca682614c00565b602082019050919050565b6000613cbe6021836143d5565b9150613cc982614c29565b604082019050919050565b6000613ce16027836143d5565b9150613cec82614c78565b604082019050919050565b6000613d046031836143d5565b9150613d0f82614cc7565b604082019050919050565b6000613d276027836143d5565b9150613d3282614d16565b604082019050919050565b6000613d4a6018836143d5565b9150613d5582614d65565b602082019050919050565b6000613d6d601f836143d5565b9150613d7882614d8e565b602082019050919050565b6000613d906017836143d5565b9150613d9b82614db7565b602082019050919050565b6000613db36001836143e6565b9150613dbe82614de0565b600182019050919050565b613dd281614582565b82525050565b613de181614582565b82525050565b6000613df382856139bc565b9150613dfe82613da6565b9150613e0a828461398b565b9150613e1582613c6b565b91508190509392505050565b6000602082019050613e36600083018461388e565b92915050565b6000606082019050613e51600083018661388e565b613e5e602083018561388e565b613e6b6040830184613dd8565b949350505050565b6000608082019050613e88600083018761388e565b613e95602083018661388e565b613ea26040830185613dd8565b8181036060830152613eb4818461390a565b905095945050505050565b6000604082019050613ed4600083018561388e565b613ee16020830184613dd8565b9392505050565b60006020820190508181036000830152613f02818461389d565b905092915050565b6000602082019050613f1f60008301846138fb565b92915050565b6000602082019050613f3a6000830184613943565b92915050565b60006020820190508181036000830152613f5a8184613952565b905092915050565b60006040820190508181036000830152613f7c8185613952565b9050613f8b6020830184613dd8565b9392505050565b60006020820190508181036000830152613fab81613a3b565b9050919050565b60006020820190508181036000830152613fcb81613a5e565b9050919050565b60006020820190508181036000830152613feb81613a81565b9050919050565b6000602082019050818103600083015261400b81613aa4565b9050919050565b6000602082019050818103600083015261402b81613ac7565b9050919050565b6000602082019050818103600083015261404b81613aea565b9050919050565b6000602082019050818103600083015261406b81613b0d565b9050919050565b6000602082019050818103600083015261408b81613b30565b9050919050565b600060208201905081810360008301526140ab81613b53565b9050919050565b600060208201905081810360008301526140cb81613b76565b9050919050565b600060208201905081810360008301526140eb81613b99565b9050919050565b6000602082019050818103600083015261410b81613bbc565b9050919050565b6000602082019050818103600083015261412b81613bdf565b9050919050565b6000602082019050818103600083015261414b81613c02565b9050919050565b6000602082019050818103600083015261416b81613c25565b9050919050565b6000602082019050818103600083015261418b81613c48565b9050919050565b600060208201905081810360008301526141ab81613c8e565b9050919050565b600060208201905081810360008301526141cb81613cb1565b9050919050565b600060208201905081810360008301526141eb81613cd4565b9050919050565b6000602082019050818103600083015261420b81613cf7565b9050919050565b6000602082019050818103600083015261422b81613d1a565b9050919050565b6000602082019050818103600083015261424b81613d3d565b9050919050565b6000602082019050818103600083015261426b81613d60565b9050919050565b6000602082019050818103600083015261428b81613d83565b9050919050565b60006020820190506142a76000830184613dd8565b92915050565b60006142b76142c8565b90506142c38282614624565b919050565b6000604051905090565b600067ffffffffffffffff8211156142ed576142ec61475c565b5b602082029050602081019050919050565b600067ffffffffffffffff8211156143195761431861475c565b5b614322826147ad565b9050602081019050919050565b600067ffffffffffffffff82111561434a5761434961475c565b5b614353826147ad565b9050602081019050919050565b6000819050602082019050919050565b60008190508160005260206000209050919050565b600081519050919050565b600081519050919050565b600081519050919050565b6000602082019050919050565b600082825260208201905092915050565b600082825260208201905092915050565b600082825260208201905092915050565b600081905092915050565b60006143fc82614582565b915061440783614582565b9250827fffffffffffffffffffffffffffffffffffffffffffffffffffffffffffffffff0382111561443c5761443b6146cf565b5b828201905092915050565b600061445282614582565b915061445d83614582565b92508261446d5761446c6146fe565b5b828204905092915050565b600061448382614582565b915061448e83614582565b9250817fffffffffffffffffffffffffffffffffffffffffffffffffffffffffffffffff04831182151516156144c7576144c66146cf565b5b828202905092915050565b60006144dd82614582565b91506144e883614582565b9250828210156144fb576144fa6146cf565b5b828203905092915050565b600061451182614562565b9050919050565b60008115159050919050565b60007fffffffff0000000000000000000000000000000000000000000000000000000082169050919050565b600061455b82614506565b9050919050565b600073ffffffffffffffffffffffffffffffffffffffff82169050919050565b6000819050919050565b60006145978261459e565b9050919050565b60006145a982614562565b9050919050565b82818337600083830152505050565b60005b838110156145dd5780820151818401526020810190506145c2565b838111156145ec576000848401525b50505050565b6000600282049050600182168061460a57607f821691505b6020821081141561461e5761461d61472d565b5b50919050565b61462d826147ad565b810181811067ffffffffffffffff8211171561464c5761464b61475c565b5b80604052505050565b600061466082614582565b91507fffffffffffffffffffffffffffffffffffffffffffffffffffffffffffffffff821415614693576146926146cf565b5b600182019050919050565b60006146a982614582565b91506146b483614582565b9250826146c4576146c36146fe565b5b828206905092915050565b7f4e487b7100000000000000000000000000000000000000000000000000000000600052601160045260246000fd5b7f4e487b7100000000000000000000000000000000000000000000000000000000600052601260045260246000fd5b7f4e487b7100000000000000000000000000000000000000000000000000000000600052602260045260246000fd5b7f4e487b7100000000000000000000000000000000000000000000000000000000600052604160045260246000fd5b600060033d11156147aa5760046000803e6147a76000516147be565b90505b90565b6000601f19601f8301169050919050565b60008160e01c9050919050565b7f4552433732313a207472616e7366657220746f206e6f6e20455243373231526560008201527f63656976657220696d706c656d656e7465720000000000000000000000000000602082015250565b7f4f776e61626c653a206e6577206f776e657220697320746865207a65726f206160008201527f6464726573730000000000000000000000000000000000000000000000000000602082015250565b7f4552433732313a207472616e736665722066726f6d20696e636f72726563742060008201527f6f776e6572000000000000000000000000000000000000000000000000000000602082015250565b7f4552433732313a20746f6b656e20616c7265616479206d696e74656400000000600082015250565b7f4552433732313a207472616e7366657220746f20746865207a65726f2061646460008201527f7265737300000000000000000000000000000000000000000000000000000000602082015250565b7f4552433732313a20617070726f766520746f2063616c6c657200000000000000600082015250565b7f4552433732313a206f70657261746f7220717565727920666f72206e6f6e657860008201527f697374656e7420746f6b656e0000000000000000000000000000000000000000602082015250565b7f5061757361626c653a2070617573656400000000000000000000000000000000600082015250565b7f4552433732313a20617070726f76652063616c6c6572206973206e6f74206f7760008201527f6e6572206e6f7220617070726f76656420666f7220616c6c0000000000000000602082015250565b7f4e6f6e6578697374656e7420746f6b656e000000000000000000000000000000600082015250565b7f4552433732313a2062616c616e636520717565727920666f7220746865207a6560008201527f726f206164647265737300000000000000000000000000000000000000000000602082015250565b7f4552433732313a206f776e657220717565727920666f72206e6f6e657869737460008201527f656e7420746f6b656e0000000000000000000000000000000000000000000000602082015250565b7f4e6f7420656e6f756768204e4654732072656d61696e696e6720746f206d696e60008201527f7400000000000000000000000000000000000000000000000000000000000000602082015250565b7f4552433732313a206d696e7420746f20746865207a65726f2061646472657373600082015250565b7f416c6c204e4654732068617665206265656e206d696e74656400000000000000600082015250565b7f4552433732313a20617070726f76656420717565727920666f72206e6f6e657860008201527f697374656e7420746f6b656e0000000000000000000000000000000000000000602082015250565b7f2e6a736f6e000000000000000000000000000000000000000000000000000000600082015250565b7f4f776e61626c653a2063616c6c6572206973206e6f7420746865206f776e6572600082015250565b7f4552433732313a20617070726f76616c20746f2063757272656e74206f776e6560008201527f7200000000000000000000000000000000000000000000000000000000000000602082015250565b7f546f6b656e204944206d757374206265206d696e746564206f6e206f6c64206360008201527f6f6e747261637400000000000000000000000000000000000000000000000000602082015250565b7f4552433732313a207472616e736665722063616c6c6572206973206e6f74206f60008201527f776e6572206e6f7220617070726f766564000000000000000000000000000000602082015250565b7f43616e6e6f7420636865636b206d6967726174696f6e20737461747573206f6660008201527f207632204e465400000000000000000000000000000000000000000000000000602082015250565b7f496e636f7272656374204554482076616c75652073656e740000000000000000600082015250565b7f5265656e7472616e637947756172643a207265656e7472616e742063616c6c00600082015250565b7f5075626c69632073616c65206973206e6f74206f70656e000000000000000000600082015250565b7f2f00000000000000000000000000000000000000000000000000000000000000600082015250565b600060443d1015614e1957614e9c565b614e216142c8565b60043d036004823e80513d602482011167ffffffffffffffff82111715614e49575050614e9c565b808201805167ffffffffffffffff811115614e675750505050614e9c565b80602083010160043d038501811115614e84575050505050614e9c565b614e9382602001850186614624565b82955050505050505b90565b614ea881614506565b8114614eb357600080fd5b50565b614ebf81614518565b8114614eca57600080fd5b50565b614ed681614524565b8114614ee157600080fd5b50565b614eed81614550565b8114614ef857600080fd5b50565b614f0481614582565b8114614f0f57600080fd5b5056fea264697066735822122074c67d89c2e04835671c8f5feff261dd8a178791f99822ce705da864c057752c64736f6c63430008040033",
  "linkReferences": {},
  "deployedLinkReferences": {}
}