{
  "_format": "hh-sol-artifact-1",
  "contractName": "MetaMogulsV2",
  "sourceName": "contracts/MetaMogulsV2.sol",
  "abi": [
    {
      "inputs": [
        {
          "internalType": "uint256",
          "name": "_maxNFTs1",
          "type": "uint256"
        },
        {
          "internalType": "string",
          "name": "_baseURI",
          "type": "string"
        },
        {
          "internalType": "bool",
          "name": "_isPublicSaleActive",
          "type": "bool"
        },
        {
          "internalType": "bool",
          "name": "_REVEAL",
          "type": "bool"
        },
        {
          "internalType": "address",
          "name": "_oldContract",
          "type": "address"
        },
        {
          "internalType": "uint256",
          "name": "_currentSupply",
          "type": "uint256"
        }
      ],
      "stateMutability": "nonpayable",
      "type": "constructor"
    },
    {
      "anonymous": false,
      "inputs": [
        {
          "indexed": true,
          "internalType": "address",
          "name": "owner",
          "type": "address"
        },
        {
          "indexed": true,
          "internalType": "address",
          "name": "approved",
          "type": "address"
        },
        {
          "indexed": true,
          "internalType": "uint256",
          "name": "tokenId",
          "type": "uint256"
        }
      ],
      "name": "Approval",
      "type": "event"
    },
    {
      "anonymous": false,
      "inputs": [
        {
          "indexed": true,
          "internalType": "address",
          "name": "owner",
          "type": "address"
        },
        {
          "indexed": true,
          "internalType": "address",
          "name": "operator",
          "type": "address"
        },
        {
          "indexed": false,
          "internalType": "bool",
          "name": "approved",
          "type": "bool"
        }
      ],
      "name": "ApprovalForAll",
      "type": "event"
    },
    {
      "anonymous": false,
      "inputs": [
        {
          "indexed": true,
          "internalType": "address",
          "name": "previousOwner",
          "type": "address"
        },
        {
          "indexed": true,
          "internalType": "address",
          "name": "newOwner",
          "type": "address"
        }
      ],
      "name": "OwnershipTransferred",
      "type": "event"
    },
    {
      "anonymous": false,
      "inputs": [
        {
          "indexed": false,
          "internalType": "address",
          "name": "account",
          "type": "address"
        }
      ],
      "name": "Paused",
      "type": "event"
    },
    {
      "anonymous": false,
      "inputs": [
        {
          "indexed": true,
          "internalType": "address",
          "name": "from",
          "type": "address"
        },
        {
          "indexed": true,
          "internalType": "address",
          "name": "to",
          "type": "address"
        },
        {
          "indexed": true,
          "internalType": "uint256",
          "name": "tokenId",
          "type": "uint256"
        }
      ],
      "name": "Transfer",
      "type": "event"
    },
    {
      "anonymous": false,
      "inputs": [
        {
          "indexed": false,
          "internalType": "address",
          "name": "account",
          "type": "address"
        }
      ],
      "name": "Unpaused",
      "type": "event"
    },
    {
      "inputs": [],
      "name": "MAX_NFTs_PER_WALLET",
      "outputs": [
        {
          "internalType": "uint256",
          "name": "",
          "type": "uint256"
        }
      ],
      "stateMutability": "view",
      "type": "function"
    },
    {
      "inputs": [],
      "name": "PUBLIC_SALE_PRICE",
      "outputs": [
        {
          "internalType": "uint256",
          "name": "",
          "type": "uint256"
        }
      ],
      "stateMutability": "view",
      "type": "function"
    },
    {
      "inputs": [],
      "name": "REVEAL",
      "outputs": [
        {
          "internalType": "bool",
          "name": "",
          "type": "bool"
        }
      ],
      "stateMutability": "view",
      "type": "function"
    },
    {
      "inputs": [
        {
          "internalType": "uint256",
          "name": "",
          "type": "uint256"
        }
      ],
      "name": "allMigratedTokens",
      "outputs": [
        {
          "internalType": "uint256",
          "name": "",
          "type": "uint256"
        }
      ],
      "stateMutability": "view",
      "type": "function"
    },
    {
      "inputs": [
        {
          "internalType": "address",
          "name": "to",
          "type": "address"
        },
        {
          "internalType": "uint256",
          "name": "tokenId",
          "type": "uint256"
        }
      ],
      "name": "approve",
      "outputs": [],
      "stateMutability": "nonpayable",
      "type": "function"
    },
    {
      "inputs": [
        {
          "internalType": "address",
          "name": "owner",
          "type": "address"
        }
      ],
      "name": "balanceOf",
      "outputs": [
        {
          "internalType": "uint256",
          "name": "",
          "type": "uint256"
        }
      ],
      "stateMutability": "view",
      "type": "function"
    },
    {
      "inputs": [
        {
          "internalType": "uint256",
          "name": "tokenId",
          "type": "uint256"
        }
      ],
      "name": "claim",
      "outputs": [],
      "stateMutability": "nonpayable",
      "type": "function"
    },
    {
      "inputs": [
        {
          "internalType": "uint256[]",
          "name": "ownedTokens",
          "type": "uint256[]"
        }
      ],
      "name": "claimAll",
      "outputs": [],
      "stateMutability": "nonpayable",
      "type": "function"
    },
    {
      "inputs": [],
      "name": "currentSupply",
      "outputs": [
        {
          "internalType": "uint256",
          "name": "",
          "type": "uint256"
        }
      ],
      "stateMutability": "view",
      "type": "function"
    },
    {
      "inputs": [],
      "name": "getAllMigratedTokens",
      "outputs": [
        {
          "internalType": "uint256[]",
          "name": "",
          "type": "uint256[]"
        }
      ],
      "stateMutability": "view",
      "type": "function"
    },
    {
      "inputs": [
        {
          "internalType": "uint256",
          "name": "tokenId",
          "type": "uint256"
        }
      ],
      "name": "getApproved",
      "outputs": [
        {
          "internalType": "address",
          "name": "",
          "type": "address"
        }
      ],
      "stateMutability": "view",
      "type": "function"
    },
    {
      "inputs": [],
      "name": "getBaseURI",
      "outputs": [
        {
          "internalType": "string",
          "name": "",
          "type": "string"
        }
      ],
      "stateMutability": "view",
      "type": "function"
    },
    {
      "inputs": [],
      "name": "getLastTokenId",
      "outputs": [
        {
          "internalType": "uint256",
          "name": "",
          "type": "uint256"
        }
      ],
      "stateMutability": "view",
      "type": "function"
    },
    {
      "inputs": [
        {
          "internalType": "address",
          "name": "owner",
          "type": "address"
        },
        {
          "internalType": "address",
          "name": "operator",
          "type": "address"
        }
      ],
      "name": "isApprovedForAll",
      "outputs": [
        {
          "internalType": "bool",
          "name": "",
          "type": "bool"
        }
      ],
      "stateMutability": "view",
      "type": "function"
    },
    {
      "inputs": [],
      "name": "isPublicSaleActive",
      "outputs": [
        {
          "internalType": "bool",
          "name": "",
          "type": "bool"
        }
      ],
      "stateMutability": "view",
      "type": "function"
    },
    {
      "inputs": [],
      "name": "maxNFTs",
      "outputs": [
        {
          "internalType": "uint256",
          "name": "",
          "type": "uint256"
        }
      ],
      "stateMutability": "view",
      "type": "function"
    },
    {
      "inputs": [
        {
          "internalType": "uint256",
          "name": "",
          "type": "uint256"
        }
      ],
      "name": "migratedTokensById",
      "outputs": [
        {
          "internalType": "bool",
          "name": "",
          "type": "bool"
        }
      ],
      "stateMutability": "view",
      "type": "function"
    },
    {
      "inputs": [
        {
          "internalType": "uint256",
          "name": "numberOfTokens",
          "type": "uint256"
        }
      ],
      "name": "mint",
      "outputs": [],
      "stateMutability": "payable",
      "type": "function"
    },
    {
      "inputs": [],
      "name": "name",
      "outputs": [
        {
          "internalType": "string",
          "name": "",
          "type": "string"
        }
      ],
      "stateMutability": "view",
      "type": "function"
    },
    {
      "inputs": [],
      "name": "oldContract",
      "outputs": [
        {
          "internalType": "contract IERC721",
          "name": "",
          "type": "address"
        }
      ],
      "stateMutability": "view",
      "type": "function"
    },
    {
      "inputs": [],
      "name": "owner",
      "outputs": [
        {
          "internalType": "address",
          "name": "",
          "type": "address"
        }
      ],
      "stateMutability": "view",
      "type": "function"
    },
    {
      "inputs": [
        {
          "internalType": "uint256",
          "name": "tokenId",
          "type": "uint256"
        }
      ],
      "name": "ownerOf",
      "outputs": [
        {
          "internalType": "address",
          "name": "",
          "type": "address"
        }
      ],
      "stateMutability": "view",
      "type": "function"
    },
    {
      "inputs": [],
      "name": "paused",
      "outputs": [
        {
          "internalType": "bool",
          "name": "",
          "type": "bool"
        }
      ],
      "stateMutability": "view",
      "type": "function"
    },
    {
      "inputs": [],
      "name": "renounceOwnership",
      "outputs": [],
      "stateMutability": "nonpayable",
      "type": "function"
    },
    {
      "inputs": [
        {
          "internalType": "address",
          "name": "from",
          "type": "address"
        },
        {
          "internalType": "address",
          "name": "to",
          "type": "address"
        },
        {
          "internalType": "uint256",
          "name": "tokenId",
          "type": "uint256"
        }
      ],
      "name": "safeTransferFrom",
      "outputs": [],
      "stateMutability": "nonpayable",
      "type": "function"
    },
    {
      "inputs": [
        {
          "internalType": "address",
          "name": "from",
          "type": "address"
        },
        {
          "internalType": "address",
          "name": "to",
          "type": "address"
        },
        {
          "internalType": "uint256",
          "name": "tokenId",
          "type": "uint256"
        },
        {
          "internalType": "bytes",
          "name": "_data",
          "type": "bytes"
        }
      ],
      "name": "safeTransferFrom",
      "outputs": [],
      "stateMutability": "nonpayable",
      "type": "function"
    },
    {
      "inputs": [
        {
          "internalType": "address",
          "name": "operator",
          "type": "address"
        },
        {
          "internalType": "bool",
          "name": "approved",
          "type": "bool"
        }
      ],
      "name": "setApprovalForAll",
      "outputs": [],
      "stateMutability": "nonpayable",
      "type": "function"
    },
    {
      "inputs": [
        {
          "internalType": "string",
          "name": "_baseURI1",
          "type": "string"
        }
      ],
      "name": "setBaseURI",
      "outputs": [],
      "stateMutability": "nonpayable",
      "type": "function"
    },
    {
      "inputs": [
        {
          "internalType": "bool",
          "name": "_isPublicSaleActive",
          "type": "bool"
        }
      ],
      "name": "setIsPublicSaleActive",
      "outputs": [],
      "stateMutability": "nonpayable",
      "type": "function"
    },
    {
      "inputs": [
        {
          "internalType": "uint256",
          "name": "_MAX_NFTs_PER_WALLET",
          "type": "uint256"
        }
      ],
      "name": "setMAX_NFTs_PER_WALLET",
      "outputs": [],
      "stateMutability": "nonpayable",
      "type": "function"
    },
    {
      "inputs": [
        {
          "internalType": "uint256",
          "name": "_maxNFTs2",
          "type": "uint256"
        }
      ],
      "name": "setMaxNFTsInTOTALCollection",
      "outputs": [],
      "stateMutability": "nonpayable",
      "type": "function"
    },
    {
      "inputs": [
        {
          "internalType": "uint256",
          "name": "_PUBLIC_SALE_PRICE",
          "type": "uint256"
        }
      ],
      "name": "setPUBLIC_SALE_PRICEinEther",
      "outputs": [],
      "stateMutability": "nonpayable",
      "type": "function"
    },
    {
      "inputs": [
        {
          "internalType": "bool",
          "name": "_REVEAL",
          "type": "bool"
        }
      ],
      "name": "setREVEAL",
      "outputs": [],
      "stateMutability": "nonpayable",
      "type": "function"
    },
    {
      "inputs": [
        {
          "internalType": "string",
          "name": "_verificationHash",
          "type": "string"
        }
      ],
      "name": "setVerificationHash",
      "outputs": [],
      "stateMutability": "nonpayable",
      "type": "function"
    },
    {
      "inputs": [
        {
          "internalType": "bytes4",
          "name": "interfaceId",
          "type": "bytes4"
        }
      ],
      "name": "supportsInterface",
      "outputs": [
        {
          "internalType": "bool",
          "name": "",
          "type": "bool"
        }
      ],
      "stateMutability": "view",
      "type": "function"
    },
    {
      "inputs": [],
      "name": "symbol",
      "outputs": [
        {
          "internalType": "string",
          "name": "",
          "type": "string"
        }
      ],
      "stateMutability": "view",
      "type": "function"
    },
    {
      "inputs": [
        {
          "internalType": "uint256",
          "name": "tokenId",
          "type": "uint256"
        }
      ],
      "name": "tokenHasBeenMigrated",
      "outputs": [
        {
          "internalType": "bool",
          "name": "",
          "type": "bool"
        }
      ],
      "stateMutability": "view",
      "type": "function"
    },
    {
      "inputs": [
        {
          "internalType": "uint256",
          "name": "tokenId",
          "type": "uint256"
        }
      ],
      "name": "tokenURI",
      "outputs": [
        {
          "internalType": "string",
          "name": "",
          "type": "string"
        }
      ],
      "stateMutability": "view",
      "type": "function"
    },
    {
      "inputs": [
        {
          "internalType": "address",
          "name": "from",
          "type": "address"
        },
        {
          "internalType": "address",
          "name": "to",
          "type": "address"
        },
        {
          "internalType": "uint256",
          "name": "tokenId",
          "type": "uint256"
        }
      ],
      "name": "transferFrom",
      "outputs": [],
      "stateMutability": "nonpayable",
      "type": "function"
    },
    {
      "inputs": [
        {
          "internalType": "address",
          "name": "newOwner",
          "type": "address"
        }
      ],
      "name": "transferOwnership",
      "outputs": [],
      "stateMutability": "nonpayable",
      "type": "function"
    },
    {
      "inputs": [],
      "name": "v1MintedSupply",
      "outputs": [
        {
          "internalType": "uint256",
          "name": "",
          "type": "uint256"
        }
      ],
      "stateMutability": "view",
      "type": "function"
    },
    {
      "inputs": [],
      "name": "verificationHash",
      "outputs": [
        {
          "internalType": "string",
          "name": "",
          "type": "string"
        }
      ],
      "stateMutability": "view",
      "type": "function"
    },
    {
      "inputs": [],
      "name": "withdraw",
      "outputs": [],
      "stateMutability": "nonpayable",
      "type": "function"
    },
    {
      "inputs": [
        {
          "internalType": "contract IERC20",
          "name": "token",
          "type": "address"
        }
      ],
      "name": "withdrawTokens",
      "outputs": [],
      "stateMutability": "nonpayable",
      "type": "function"
    }
  ],
  "bytecode": "0x6080604052600a600b5566d529ae9e860000600d553480156200002157600080fd5b50604051620056e3380380620056e3833981810160405281019062000047919062000444565b6040518060400160405280600b81526020017f4d657461204d6f67756c730000000000000000000000000000000000000000008152506040518060400160405280600581526020017f4d4f47554c0000000000000000000000000000000000000000000000000000008152508160009080519060200190620000cb929190620002dd565b508060019080519060200190620000e4929190620002dd565b50505062000107620000fb6200020f60201b60201c565b6200021760201b60201c565b60016007819055506000600860006101000a81548160ff02191690831515021790555085600c81905550846009908051906020019062000149929190620002dd565b5082600e60016101000a81548160ff02191690831515021790555083600e60006101000a81548160ff02191690831515021790555080600f8190555080601081905550600073ffffffffffffffffffffffffffffffffffffffff168273ffffffffffffffffffffffffffffffffffffffff1614620002035781600e60026101000a81548173ffffffffffffffffffffffffffffffffffffffff021916908373ffffffffffffffffffffffffffffffffffffffff1602179055505b505050505050620006fb565b600033905090565b6000600660009054906101000a900473ffffffffffffffffffffffffffffffffffffffff16905081600660006101000a81548173ffffffffffffffffffffffffffffffffffffffff021916908373ffffffffffffffffffffffffffffffffffffffff1602179055508173ffffffffffffffffffffffffffffffffffffffff168173ffffffffffffffffffffffffffffffffffffffff167f8be0079c531659141344cd1fd0a4f28419497f9722a3daafe3b4186f6b6457e060405160405180910390a35050565b828054620002eb90620005d2565b90600052602060002090601f0160209004810192826200030f57600085556200035b565b82601f106200032a57805160ff19168380011785556200035b565b828001600101855582156200035b579182015b828111156200035a5782518255916020019190600101906200033d565b5b5090506200036a91906200036e565b5090565b5b80821115620003895760008160009055506001016200036f565b5090565b6000620003a46200039e846200051c565b620004f3565b905082815260208101848484011115620003bd57600080fd5b620003ca8482856200059c565b509392505050565b600081519050620003e381620006ad565b92915050565b600081519050620003fa81620006c7565b92915050565b600082601f8301126200041257600080fd5b8151620004248482602086016200038d565b91505092915050565b6000815190506200043e81620006e1565b92915050565b60008060008060008060c087890312156200045e57600080fd5b60006200046e89828a016200042d565b965050602087015167ffffffffffffffff8111156200048c57600080fd5b6200049a89828a0162000400565b9550506040620004ad89828a01620003e9565b9450506060620004c089828a01620003e9565b9350506080620004d389828a01620003d2565b92505060a0620004e689828a016200042d565b9150509295509295509295565b6000620004ff62000512565b90506200050d828262000608565b919050565b6000604051905090565b600067ffffffffffffffff8211156200053a57620005396200066d565b5b62000545826200069c565b9050602081019050919050565b60006200055f8262000572565b9050919050565b60008115159050919050565b600073ffffffffffffffffffffffffffffffffffffffff82169050919050565b6000819050919050565b60005b83811015620005bc5780820151818401526020810190506200059f565b83811115620005cc576000848401525b50505050565b60006002820490506001821680620005eb57607f821691505b602082108114156200060257620006016200063e565b5b50919050565b62000613826200069c565b810181811067ffffffffffffffff821117156200063557620006346200066d565b5b80604052505050565b7f4e487b7100000000000000000000000000000000000000000000000000000000600052602260045260246000fd5b7f4e487b7100000000000000000000000000000000000000000000000000000000600052604160045260246000fd5b6000601f19601f8301169050919050565b620006b88162000552565b8114620006c457600080fd5b50565b620006d28162000566565b8114620006de57600080fd5b50565b620006ec8162000592565b8114620006f857600080fd5b50565b614fd8806200070b6000396000f3fe6080604052600436106102665760003560e01c80635c975abb1161014457806395d89b41116100b6578063c0c36a371161007a578063c0c36a37146108f8578063c87b56dd14610923578063dad03ff814610960578063e6f831d514610989578063e985e9c5146109b4578063f2fde38b146109f157610266565b806395d89b4114610834578063995acb6a1461085f578063a0712d681461088a578063a22cb465146108a6578063b88d4fde146108cf57610266565b8063714c539811610108578063714c539814610746578063715018a614610771578063771282f61461078857806382651bd0146107b357806383c4c00d146107de5780638da5cb5b1461080957610266565b80635c975abb1461064f5780636352211e1461067a578063679657fb146106b75780636ceea7c0146106e057806370a082311461070957610266565b806328c77820116101dd5780633ccfd60b116101a15780633ccfd60b1461056757806342842e0e1461057e57806349df728c146105a75780634e9e1ec6146105d0578063509cc170146105fb57806355f804b31461062657610266565b806328c778201461048457806328cad13d146104ad57806330503c4e146104d657806332db9d9214610501578063379607f51461053e57610266565b8063095ea7b31161022f578063095ea7b3146103785780631b2cd47e146103a15780631b3d26f4146103ca5780631e84c4131461040757806323b872dd1461043257806324f985e91461045b57610266565b806287fefb1461026b57806301ffc9a7146102a857806306fdde03146102e557806307e89ec014610310578063081812fc1461033b575b600080fd5b34801561027757600080fd5b50610292600480360381019061028d9190613848565b610a1a565b60405161029f9190613f51565b60405180910390f35b3480156102b457600080fd5b506102cf60048036038101906102ca919061378c565b610a89565b6040516102dc9190613f51565b60405180910390f35b3480156102f157600080fd5b506102fa610b6b565b6040516103079190613f87565b60405180910390f35b34801561031c57600080fd5b50610325610bfd565b60405161033291906142f9565b60405180910390f35b34801561034757600080fd5b50610362600480360381019061035d9190613848565b610c03565b60405161036f9190613e68565b60405180910390f35b34801561038457600080fd5b5061039f600480360381019061039a91906136bd565b610c88565b005b3480156103ad57600080fd5b506103c860048036038101906103c39190613848565b610da0565b005b3480156103d657600080fd5b506103f160048036038101906103ec9190613848565b610e26565b6040516103fe91906142f9565b60405180910390f35b34801561041357600080fd5b5061041c610e4a565b6040516104299190613f51565b60405180910390f35b34801561043e57600080fd5b50610459600480360381019061045491906135b7565b610e5d565b005b34801561046757600080fd5b50610482600480360381019061047d9190613807565b610ebd565b005b34801561049057600080fd5b506104ab60048036038101906104a691906136f9565b610f53565b005b3480156104b957600080fd5b506104d460048036038101906104cf919061373a565b611223565b005b3480156104e257600080fd5b506104eb6112bc565b6040516104f89190613f6c565b60405180910390f35b34801561050d57600080fd5b5061052860048036038101906105239190613848565b6112e2565b6040516105359190613f51565b60405180910390f35b34801561054a57600080fd5b5061056560048036038101906105609190613848565b611302565b005b34801561057357600080fd5b5061057c61144e565b005b34801561058a57600080fd5b506105a560048036038101906105a091906135b7565b611519565b005b3480156105b357600080fd5b506105ce60048036038101906105c991906137de565b611539565b005b3480156105dc57600080fd5b506105e56116d4565b6040516105f291906142f9565b60405180910390f35b34801561060757600080fd5b506106106116da565b60405161061d91906142f9565b60405180910390f35b34801561063257600080fd5b5061064d60048036038101906106489190613807565b6116e0565b005b34801561065b57600080fd5b50610664611776565b6040516106719190613f51565b60405180910390f35b34801561068657600080fd5b506106a1600480360381019061069c9190613848565b61178d565b6040516106ae9190613e68565b60405180910390f35b3480156106c357600080fd5b506106de60048036038101906106d99190613848565b61183f565b005b3480156106ec57600080fd5b5061070760048036038101906107029190613848565b6118c5565b005b34801561071557600080fd5b50610730600480360381019061072b9190613529565b61194b565b60405161073d91906142f9565b60405180910390f35b34801561075257600080fd5b5061075b611a03565b6040516107689190613f87565b60405180910390f35b34801561077d57600080fd5b50610786611a95565b005b34801561079457600080fd5b5061079d611b1d565b6040516107aa91906142f9565b60405180910390f35b3480156107bf57600080fd5b506107c8611b23565b6040516107d59190613f51565b60405180910390f35b3480156107ea57600080fd5b506107f3611b36565b60405161080091906142f9565b60405180910390f35b34801561081557600080fd5b5061081e611b40565b60405161082b9190613e68565b60405180910390f35b34801561084057600080fd5b50610849611b6a565b6040516108569190613f87565b60405180910390f35b34801561086b57600080fd5b50610874611bfc565b6040516108819190613f2f565b60405180910390f35b6108a4600480360381019061089f9190613848565b611c54565b005b3480156108b257600080fd5b506108cd60048036038101906108c89190613681565b611e83565b005b3480156108db57600080fd5b506108f660048036038101906108f19190613606565b611e99565b005b34801561090457600080fd5b5061090d611efb565b60405161091a9190613f87565b60405180910390f35b34801561092f57600080fd5b5061094a60048036038101906109459190613848565b611f89565b6040516109579190613f87565b60405180910390f35b34801561096c57600080fd5b506109876004803603810190610982919061373a565b6120ad565b005b34801561099557600080fd5b5061099e612146565b6040516109ab91906142f9565b60405180910390f35b3480156109c057600080fd5b506109db60048036038101906109d6919061357b565b61214c565b6040516109e89190613f51565b60405180910390f35b3480156109fd57600080fd5b50610a186004803603810190610a139190613529565b6121e0565b005b6000601054821115610a61576040517f08c379a0000000000000000000000000000000000000000000000000000000008152600401610a5890614279565b60405180910390fd5b6012600083815260200190815260200160002060009054906101000a900460ff169050919050565b60007f80ac58cd000000000000000000000000000000000000000000000000000000007bffffffffffffffffffffffffffffffffffffffffffffffffffffffff1916827bffffffffffffffffffffffffffffffffffffffffffffffffffffffff19161480610b5457507f5b5e139f000000000000000000000000000000000000000000000000000000007bffffffffffffffffffffffffffffffffffffffffffffffffffffffff1916827bffffffffffffffffffffffffffffffffffffffffffffffffffffffff1916145b80610b645750610b63826122d8565b5b9050919050565b606060008054610b7a90614659565b80601f0160208091040260200160405190810160405280929190818152602001828054610ba690614659565b8015610bf35780601f10610bc857610100808354040283529160200191610bf3565b820191906000526020600020905b815481529060010190602001808311610bd657829003601f168201915b5050505050905090565b600d5481565b6000610c0e82612342565b610c4d576040517f08c379a0000000000000000000000000000000000000000000000000000000008152600401610c44906141d9565b60405180910390fd5b6004600083815260200190815260200160002060009054906101000a900473ffffffffffffffffffffffffffffffffffffffff169050919050565b6000610c938261178d565b90508073ffffffffffffffffffffffffffffffffffffffff168373ffffffffffffffffffffffffffffffffffffffff161415610d04576040517f08c379a0000000000000000000000000000000000000000000000000000000008152600401610cfb90614219565b60405180910390fd5b8073ffffffffffffffffffffffffffffffffffffffff16610d236123ae565b73ffffffffffffffffffffffffffffffffffffffff161480610d525750610d5181610d4c6123ae565b61214c565b5b610d91576040517f08c379a0000000000000000000000000000000000000000000000000000000008152600401610d88906140f9565b60405180910390fd5b610d9b83836123b6565b505050565b610da86123ae565b73ffffffffffffffffffffffffffffffffffffffff16610dc6611b40565b73ffffffffffffffffffffffffffffffffffffffff1614610e1c576040517f08c379a0000000000000000000000000000000000000000000000000000000008152600401610e13906141f9565b60405180910390fd5b80600d8190555050565b60118181548110610e3657600080fd5b906000526020600020016000915090505481565b600e60009054906101000a900460ff1681565b610e6e610e686123ae565b8261246f565b610ead576040517f08c379a0000000000000000000000000000000000000000000000000000000008152600401610ea490614259565b60405180910390fd5b610eb883838361254d565b505050565b610ec56123ae565b73ffffffffffffffffffffffffffffffffffffffff16610ee3611b40565b73ffffffffffffffffffffffffffffffffffffffff1614610f39576040517f08c379a0000000000000000000000000000000000000000000000000000000008152600401610f30906141f9565b60405180910390fd5b80600a9080519060200190610f4f929190613263565b5050565b60026007541415610f99576040517f08c379a0000000000000000000000000000000000000000000000000000000008152600401610f90906142b9565b60405180910390fd5b6002600781905550610fa9611776565b15610fe9576040517f08c379a0000000000000000000000000000000000000000000000000000000008152600401610fe0906140d9565b60405180910390fd5b60008151905061102e6040518060400160405280601281526020017f6f776e6564546f6b656e732e6c656e6774680000000000000000000000000000815250826127b4565b60005b81811015611216576000838281518110611074577f4e487b7100000000000000000000000000000000000000000000000000000000600052603260045260246000fd5b602002602001015190506110bd6040518060400160405280600d81526020017f746f6b656e4964546f4d696e7400000000000000000000000000000000000000815250826127b4565b601054811115611102576040517f08c379a00000000000000000000000000000000000000000000000000000000081526004016110f990614239565b60405180910390fd5b61110c3382612850565b1561120257600e60029054906101000a900473ffffffffffffffffffffffffffffffffffffffff1673ffffffffffffffffffffffffffffffffffffffff166323b872dd3330846040518463ffffffff1660e01b815260040161117093929190613e83565b600060405180830381600087803b15801561118a57600080fd5b505af115801561119e573d6000803e3d6000fd5b505050506111ac3382612971565b601181908060018154018082558091505060019003906000526020600020016000909190919091505560016012600083815260200190815260200160002060006101000a81548160ff0219169083151502179055505b50808061120e906146bc565b915050611031565b5050600160078190555050565b61122b6123ae565b73ffffffffffffffffffffffffffffffffffffffff16611249611b40565b73ffffffffffffffffffffffffffffffffffffffff161461129f576040517f08c379a0000000000000000000000000000000000000000000000000000000008152600401611296906141f9565b60405180910390fd5b80600e60006101000a81548160ff02191690831515021790555050565b600e60029054906101000a900473ffffffffffffffffffffffffffffffffffffffff1681565b60126020528060005260406000206000915054906101000a900460ff1681565b60026007541415611348576040517f08c379a000000000000000000000000000000000000000000000000000000000815260040161133f906142b9565b60405180910390fd5b6002600781905550611358611776565b15611398576040517f08c379a000000000000000000000000000000000000000000000000000000000815260040161138f906140d9565b60405180910390fd5b6113a23382612850565b1561144357600e60029054906101000a900473ffffffffffffffffffffffffffffffffffffffff1673ffffffffffffffffffffffffffffffffffffffff166323b872dd3330846040518463ffffffff1660e01b815260040161140693929190613e83565b600060405180830381600087803b15801561142057600080fd5b505af1158015611434573d6000803e3d6000fd5b505050506114423382612971565b5b600160078190555050565b6114566123ae565b73ffffffffffffffffffffffffffffffffffffffff16611474611b40565b73ffffffffffffffffffffffffffffffffffffffff16146114ca576040517f08c379a00000000000000000000000000000000000000000000000000000000081526004016114c1906141f9565b60405180910390fd5b60004790503373ffffffffffffffffffffffffffffffffffffffff166108fc829081150290604051600060405180830381858888f19350505050158015611515573d6000803e3d6000fd5b5050565b61153483838360405180602001604052806000815250611e99565b505050565b6115416123ae565b73ffffffffffffffffffffffffffffffffffffffff1661155f611b40565b73ffffffffffffffffffffffffffffffffffffffff16146115b5576040517f08c379a00000000000000000000000000000000000000000000000000000000081526004016115ac906141f9565b60405180910390fd5b60008173ffffffffffffffffffffffffffffffffffffffff166370a08231306040518263ffffffff1660e01b81526004016115f09190613e68565b60206040518083038186803b15801561160857600080fd5b505afa15801561161c573d6000803e3d6000fd5b505050506040513d601f19601f820116820180604052508101906116409190613871565b90508173ffffffffffffffffffffffffffffffffffffffff1663a9059cbb33836040518363ffffffff1660e01b815260040161167d929190613f06565b602060405180830381600087803b15801561169757600080fd5b505af11580156116ab573d6000803e3d6000fd5b505050506040513d601f19601f820116820180604052508101906116cf9190613763565b505050565b600c5481565b600b5481565b6116e86123ae565b73ffffffffffffffffffffffffffffffffffffffff16611706611b40565b73ffffffffffffffffffffffffffffffffffffffff161461175c576040517f08c379a0000000000000000000000000000000000000000000000000000000008152600401611753906141f9565b60405180910390fd5b8060099080519060200190611772929190613263565b5050565b6000600860009054906101000a900460ff16905090565b6000806002600084815260200190815260200160002060009054906101000a900473ffffffffffffffffffffffffffffffffffffffff169050600073ffffffffffffffffffffffffffffffffffffffff168173ffffffffffffffffffffffffffffffffffffffff161415611836576040517f08c379a000000000000000000000000000000000000000000000000000000000815260040161182d90614159565b60405180910390fd5b80915050919050565b6118476123ae565b73ffffffffffffffffffffffffffffffffffffffff16611865611b40565b73ffffffffffffffffffffffffffffffffffffffff16146118bb576040517f08c379a00000000000000000000000000000000000000000000000000000000081526004016118b2906141f9565b60405180910390fd5b80600c8190555050565b6118cd6123ae565b73ffffffffffffffffffffffffffffffffffffffff166118eb611b40565b73ffffffffffffffffffffffffffffffffffffffff1614611941576040517f08c379a0000000000000000000000000000000000000000000000000000000008152600401611938906141f9565b60405180910390fd5b80600b8190555050565b60008073ffffffffffffffffffffffffffffffffffffffff168273ffffffffffffffffffffffffffffffffffffffff1614156119bc576040517f08c379a00000000000000000000000000000000000000000000000000000000081526004016119b390614139565b60405180910390fd5b600360008373ffffffffffffffffffffffffffffffffffffffff1673ffffffffffffffffffffffffffffffffffffffff168152602001908152602001600020549050919050565b606060098054611a1290614659565b80601f0160208091040260200160405190810160405280929190818152602001828054611a3e90614659565b8015611a8b5780601f10611a6057610100808354040283529160200191611a8b565b820191906000526020600020905b815481529060010190602001808311611a6e57829003601f168201915b5050505050905090565b611a9d6123ae565b73ffffffffffffffffffffffffffffffffffffffff16611abb611b40565b73ffffffffffffffffffffffffffffffffffffffff1614611b11576040517f08c379a0000000000000000000000000000000000000000000000000000000008152600401611b08906141f9565b60405180910390fd5b611b1b600061298f565b565b600f5481565b600e60019054906101000a900460ff1681565b6000600f54905090565b6000600660009054906101000a900473ffffffffffffffffffffffffffffffffffffffff16905090565b606060018054611b7990614659565b80601f0160208091040260200160405190810160405280929190818152602001828054611ba590614659565b8015611bf25780601f10611bc757610100808354040283529160200191611bf2565b820191906000526020600020905b815481529060010190602001808311611bd557829003601f168201915b5050505050905090565b60606011805480602002602001604051908101604052809291908181526020018280548015611c4a57602002820191906000526020600020905b815481526020019060010190808311611c36575b5050505050905090565b60026007541415611c9a576040517f08c379a0000000000000000000000000000000000000000000000000000000008152600401611c91906142b9565b60405180910390fd5b6002600781905550600d5481348183611cb391906144df565b14611cf3576040517f08c379a0000000000000000000000000000000000000000000000000000000008152600401611cea90614299565b60405180910390fd5b600e60009054906101000a900460ff16611d42576040517f08c379a0000000000000000000000000000000000000000000000000000000008152600401611d39906142d9565b60405180910390fd5b82600c5481600f54611d549190614458565b1115611d95576040517f08c379a0000000000000000000000000000000000000000000000000000000008152600401611d8c90614179565b60405180910390fd5b83600b5481611da33361194b565b611dad9190614458565b1115611dee576040517f08c379a0000000000000000000000000000000000000000000000000000000008152600401611de590614059565b60405180910390fd5b611df6611776565b15611e36576040517f08c379a0000000000000000000000000000000000000000000000000000000008152600401611e2d906140d9565b60405180910390fd5b60005b85811015611e73576000611e4b612a55565b9050611e573382612971565b611e5f612ab1565b508080611e6b906146bc565b915050611e39565b5050505050600160078190555050565b611e95611e8e6123ae565b8383612acb565b5050565b611eaa611ea46123ae565b8361246f565b611ee9576040517f08c379a0000000000000000000000000000000000000000000000000000000008152600401611ee090614259565b60405180910390fd5b611ef584848484612c38565b50505050565b600a8054611f0890614659565b80601f0160208091040260200160405190810160405280929190818152602001828054611f3490614659565b8015611f815780601f10611f5657610100808354040283529160200191611f81565b820191906000526020600020905b815481529060010190602001808311611f6457829003601f168201915b505050505081565b6060611f9482612342565b611fd3576040517f08c379a0000000000000000000000000000000000000000000000000000000008152600401611fca90614119565b60405180910390fd5b600e60019054906101000a900460ff161561201a576009611ff383612c94565b604051602001612004929190613e2e565b60405160208183030381529060405290506120a8565b6009805461202790614659565b80601f016020809104026020016040519081016040528092919081815260200182805461205390614659565b80156120a05780601f10612075576101008083540402835291602001916120a0565b820191906000526020600020905b81548152906001019060200180831161208357829003601f168201915b505050505090505b919050565b6120b56123ae565b73ffffffffffffffffffffffffffffffffffffffff166120d3611b40565b73ffffffffffffffffffffffffffffffffffffffff1614612129576040517f08c379a0000000000000000000000000000000000000000000000000000000008152600401612120906141f9565b60405180910390fd5b80600e60016101000a81548160ff02191690831515021790555050565b60105481565b6000600560008473ffffffffffffffffffffffffffffffffffffffff1673ffffffffffffffffffffffffffffffffffffffff16815260200190815260200160002060008373ffffffffffffffffffffffffffffffffffffffff1673ffffffffffffffffffffffffffffffffffffffff16815260200190815260200160002060009054906101000a900460ff16905092915050565b6121e86123ae565b73ffffffffffffffffffffffffffffffffffffffff16612206611b40565b73ffffffffffffffffffffffffffffffffffffffff161461225c576040517f08c379a0000000000000000000000000000000000000000000000000000000008152600401612253906141f9565b60405180910390fd5b600073ffffffffffffffffffffffffffffffffffffffff168173ffffffffffffffffffffffffffffffffffffffff1614156122cc576040517f08c379a00000000000000000000000000000000000000000000000000000000081526004016122c390613ff9565b60405180910390fd5b6122d58161298f565b50565b60007f01ffc9a7000000000000000000000000000000000000000000000000000000007bffffffffffffffffffffffffffffffffffffffffffffffffffffffff1916827bffffffffffffffffffffffffffffffffffffffffffffffffffffffff1916149050919050565b60008073ffffffffffffffffffffffffffffffffffffffff166002600084815260200190815260200160002060009054906101000a900473ffffffffffffffffffffffffffffffffffffffff1673ffffffffffffffffffffffffffffffffffffffff1614159050919050565b600033905090565b816004600083815260200190815260200160002060006101000a81548173ffffffffffffffffffffffffffffffffffffffff021916908373ffffffffffffffffffffffffffffffffffffffff160217905550808273ffffffffffffffffffffffffffffffffffffffff166124298361178d565b73ffffffffffffffffffffffffffffffffffffffff167f8c5be1e5ebec7d5bd14f71427d1e84f3dd0314c0f7b2291e5b200ac8c7c3b92560405160405180910390a45050565b600061247a82612342565b6124b9576040517f08c379a00000000000000000000000000000000000000000000000000000000081526004016124b0906140b9565b60405180910390fd5b60006124c48361178d565b90508073ffffffffffffffffffffffffffffffffffffffff168473ffffffffffffffffffffffffffffffffffffffff16148061253357508373ffffffffffffffffffffffffffffffffffffffff1661251b84610c03565b73ffffffffffffffffffffffffffffffffffffffff16145b806125445750612543818561214c565b5b91505092915050565b8273ffffffffffffffffffffffffffffffffffffffff1661256d8261178d565b73ffffffffffffffffffffffffffffffffffffffff16146125c3576040517f08c379a00000000000000000000000000000000000000000000000000000000081526004016125ba90614019565b60405180910390fd5b600073ffffffffffffffffffffffffffffffffffffffff168273ffffffffffffffffffffffffffffffffffffffff161415612633576040517f08c379a000000000000000000000000000000000000000000000000000000000815260040161262a90614079565b60405180910390fd5b61263e838383612e41565b6126496000826123b6565b6001600360008573ffffffffffffffffffffffffffffffffffffffff1673ffffffffffffffffffffffffffffffffffffffff16815260200190815260200160002060008282546126999190614539565b925050819055506001600360008473ffffffffffffffffffffffffffffffffffffffff1673ffffffffffffffffffffffffffffffffffffffff16815260200190815260200160002060008282546126f09190614458565b92505081905550816002600083815260200190815260200160002060006101000a81548173ffffffffffffffffffffffffffffffffffffffff021916908373ffffffffffffffffffffffffffffffffffffffff160217905550808273ffffffffffffffffffffffffffffffffffffffff168473ffffffffffffffffffffffffffffffffffffffff167fddf252ad1be2c89b69c2b068fc378daa952ba7f163c4a11628f55a4df523b3ef60405160405180910390a46127af838383612e46565b505050565b61284c82826040516024016127ca929190613fa9565b6040516020818303038152906040527f9710a9d0000000000000000000000000000000000000000000000000000000007bffffffffffffffffffffffffffffffffffffffffffffffffffffffff19166020820180517bffffffffffffffffffffffffffffffffffffffffffffffffffffffff8381831617835250505050612e4b565b5050565b6000600e60029054906101000a900473ffffffffffffffffffffffffffffffffffffffff1673ffffffffffffffffffffffffffffffffffffffff16636352211e836040518263ffffffff1660e01b81526004016128ad91906142f9565b60206040518083038186803b1580156128c557600080fd5b505afa9250505080156128f657506040513d601f19601f820116820180604052508101906128f39190613552565b60015b612938576129026147f2565b806308c379a0141561292c5750612917614e99565b80612922575061292e565b600091505061296b565b505b3d6000803e3d6000fd5b8073ffffffffffffffffffffffffffffffffffffffff168473ffffffffffffffffffffffffffffffffffffffff16149150505b92915050565b61298b828260405180602001604052806000815250612e74565b5050565b6000600660009054906101000a900473ffffffffffffffffffffffffffffffffffffffff16905081600660006101000a81548173ffffffffffffffffffffffffffffffffffffffff021916908373ffffffffffffffffffffffffffffffffffffffff1602179055508173ffffffffffffffffffffffffffffffffffffffff168173ffffffffffffffffffffffffffffffffffffffff167f8be0079c531659141344cd1fd0a4f28419497f9722a3daafe3b4186f6b6457e060405160405180910390a35050565b6000600c54600f5410612a9d576040517f08c379a0000000000000000000000000000000000000000000000000000000008152600401612a94906141b9565b60405180910390fd5b6001600f54612aac9190614458565b905090565b600f6000815480929190612ac4906146bc565b9190505550565b8173ffffffffffffffffffffffffffffffffffffffff168373ffffffffffffffffffffffffffffffffffffffff161415612b3a576040517f08c379a0000000000000000000000000000000000000000000000000000000008152600401612b3190614099565b60405180910390fd5b80600560008573ffffffffffffffffffffffffffffffffffffffff1673ffffffffffffffffffffffffffffffffffffffff16815260200190815260200160002060008473ffffffffffffffffffffffffffffffffffffffff1673ffffffffffffffffffffffffffffffffffffffff16815260200190815260200160002060006101000a81548160ff0219169083151502179055508173ffffffffffffffffffffffffffffffffffffffff168373ffffffffffffffffffffffffffffffffffffffff167f17307eab39ab6107e8899845ad3d59bd9653f200f220920489ca2b5937696c3183604051612c2b9190613f51565b60405180910390a3505050565b612c4384848461254d565b612c4f84848484612ecf565b612c8e576040517f08c379a0000000000000000000000000000000000000000000000000000000008152600401612c8590613fd9565b60405180910390fd5b50505050565b60606000821415612cdc576040518060400160405280600181526020017f30000000000000000000000000000000000000000000000000000000000000008152509050612e3c565b600082905060005b60008214612d0e578080612cf7906146bc565b915050600a82612d0791906144ae565b9150612ce4565b60008167ffffffffffffffff811115612d50577f4e487b7100000000000000000000000000000000000000000000000000000000600052604160045260246000fd5b6040519080825280601f01601f191660200182016040528015612d825781602001600182028036833780820191505090505b5090505b60008514612e3557600182612d9b9190614539565b9150600a85612daa9190614705565b6030612db69190614458565b60f81b818381518110612df2577f4e487b7100000000000000000000000000000000000000000000000000000000600052603260045260246000fd5b60200101907effffffffffffffffffffffffffffffffffffffffffffffffffffffffffffff1916908160001a905350600a85612e2e91906144ae565b9450612d86565b8093505050505b919050565b505050565b505050565b60008151905060006a636f6e736f6c652e6c6f679050602083016000808483855afa5050505050565b612e7e8383613066565b612e8b6000848484612ecf565b612eca576040517f08c379a0000000000000000000000000000000000000000000000000000000008152600401612ec190613fd9565b60405180910390fd5b505050565b6000612ef08473ffffffffffffffffffffffffffffffffffffffff16613240565b15613059578373ffffffffffffffffffffffffffffffffffffffff1663150b7a02612f196123ae565b8786866040518563ffffffff1660e01b8152600401612f3b9493929190613eba565b602060405180830381600087803b158015612f5557600080fd5b505af1925050508015612f8657506040513d601f19601f82011682018060405250810190612f8391906137b5565b60015b613009573d8060008114612fb6576040519150601f19603f3d011682016040523d82523d6000602084013e612fbb565b606091505b50600081511415613001576040517f08c379a0000000000000000000000000000000000000000000000000000000008152600401612ff890613fd9565b60405180910390fd5b805181602001fd5b63150b7a0260e01b7bffffffffffffffffffffffffffffffffffffffffffffffffffffffff1916817bffffffffffffffffffffffffffffffffffffffffffffffffffffffff19161491505061305e565b600190505b949350505050565b600073ffffffffffffffffffffffffffffffffffffffff168273ffffffffffffffffffffffffffffffffffffffff1614156130d6576040517f08c379a00000000000000000000000000000000000000000000000000000000081526004016130cd90614199565b60405180910390fd5b6130df81612342565b1561311f576040517f08c379a000000000000000000000000000000000000000000000000000000000815260040161311690614039565b60405180910390fd5b61312b60008383612e41565b6001600360008473ffffffffffffffffffffffffffffffffffffffff1673ffffffffffffffffffffffffffffffffffffffff168152602001908152602001600020600082825461317b9190614458565b92505081905550816002600083815260200190815260200160002060006101000a81548173ffffffffffffffffffffffffffffffffffffffff021916908373ffffffffffffffffffffffffffffffffffffffff160217905550808273ffffffffffffffffffffffffffffffffffffffff16600073ffffffffffffffffffffffffffffffffffffffff167fddf252ad1be2c89b69c2b068fc378daa952ba7f163c4a11628f55a4df523b3ef60405160405180910390a461323c60008383612e46565b5050565b6000808273ffffffffffffffffffffffffffffffffffffffff163b119050919050565b82805461326f90614659565b90600052602060002090601f01602090048101928261329157600085556132d8565b82601f106132aa57805160ff19168380011785556132d8565b828001600101855582156132d8579182015b828111156132d75782518255916020019190600101906132bc565b5b5090506132e591906132e9565b5090565b5b808211156133025760008160009055506001016132ea565b5090565b600061331961331484614339565b614314565b9050808382526020820190508285602086028201111561333857600080fd5b60005b85811015613368578161334e88826134ff565b84526020840193506020830192505060018101905061333b565b5050509392505050565b600061338561338084614365565b614314565b90508281526020810184848401111561339d57600080fd5b6133a8848285614617565b509392505050565b60006133c36133be84614396565b614314565b9050828152602081018484840111156133db57600080fd5b6133e6848285614617565b509392505050565b6000813590506133fd81614f2f565b92915050565b60008151905061341281614f2f565b92915050565b600082601f83011261342957600080fd5b8135613439848260208601613306565b91505092915050565b60008135905061345181614f46565b92915050565b60008151905061346681614f46565b92915050565b60008135905061347b81614f5d565b92915050565b60008151905061349081614f5d565b92915050565b600082601f8301126134a757600080fd5b81356134b7848260208601613372565b91505092915050565b6000813590506134cf81614f74565b92915050565b600082601f8301126134e657600080fd5b81356134f68482602086016133b0565b91505092915050565b60008135905061350e81614f8b565b92915050565b60008151905061352381614f8b565b92915050565b60006020828403121561353b57600080fd5b6000613549848285016133ee565b91505092915050565b60006020828403121561356457600080fd5b600061357284828501613403565b91505092915050565b6000806040838503121561358e57600080fd5b600061359c858286016133ee565b92505060206135ad858286016133ee565b9150509250929050565b6000806000606084860312156135cc57600080fd5b60006135da868287016133ee565b93505060206135eb868287016133ee565b92505060406135fc868287016134ff565b9150509250925092565b6000806000806080858703121561361c57600080fd5b600061362a878288016133ee565b945050602061363b878288016133ee565b935050604061364c878288016134ff565b925050606085013567ffffffffffffffff81111561366957600080fd5b61367587828801613496565b91505092959194509250565b6000806040838503121561369457600080fd5b60006136a2858286016133ee565b92505060206136b385828601613442565b9150509250929050565b600080604083850312156136d057600080fd5b60006136de858286016133ee565b92505060206136ef858286016134ff565b9150509250929050565b60006020828403121561370b57600080fd5b600082013567ffffffffffffffff81111561372557600080fd5b61373184828501613418565b91505092915050565b60006020828403121561374c57600080fd5b600061375a84828501613442565b91505092915050565b60006020828403121561377557600080fd5b600061378384828501613457565b91505092915050565b60006020828403121561379e57600080fd5b60006137ac8482850161346c565b91505092915050565b6000602082840312156137c757600080fd5b60006137d584828501613481565b91505092915050565b6000602082840312156137f057600080fd5b60006137fe848285016134c0565b91505092915050565b60006020828403121561381957600080fd5b600082013567ffffffffffffffff81111561383357600080fd5b61383f848285016134d5565b91505092915050565b60006020828403121561385a57600080fd5b6000613868848285016134ff565b91505092915050565b60006020828403121561388357600080fd5b600061389184828501613514565b91505092915050565b60006138a68383613e10565b60208301905092915050565b6138bb8161456d565b82525050565b60006138cc826143ec565b6138d6818561441a565b93506138e1836143c7565b8060005b838110156139125781516138f9888261389a565b97506139048361440d565b9250506001810190506138e5565b5085935050505092915050565b6139288161457f565b82525050565b6000613939826143f7565b613943818561442b565b9350613953818560208601614626565b61395c81614814565b840191505092915050565b613970816145f3565b82525050565b600061398182614402565b61398b818561443c565b935061399b818560208601614626565b6139a481614814565b840191505092915050565b60006139ba82614402565b6139c4818561444d565b93506139d4818560208601614626565b80840191505092915050565b600081546139ed81614659565b6139f7818661444d565b94506001821660008114613a125760018114613a2357613a56565b60ff19831686528186019350613a56565b613a2c856143d7565b60005b83811015613a4e57815481890152600182019150602081019050613a2f565b838801955050505b50505092915050565b6000613a6c60328361443c565b9150613a7782614832565b604082019050919050565b6000613a8f60268361443c565b9150613a9a82614881565b604082019050919050565b6000613ab260258361443c565b9150613abd826148d0565b604082019050919050565b6000613ad5601c8361443c565b9150613ae08261491f565b602082019050919050565b6000613af860178361443c565b9150613b0382614948565b602082019050919050565b6000613b1b60248361443c565b9150613b2682614971565b604082019050919050565b6000613b3e60198361443c565b9150613b49826149c0565b602082019050919050565b6000613b61602c8361443c565b9150613b6c826149e9565b604082019050919050565b6000613b8460108361443c565b9150613b8f82614a38565b602082019050919050565b6000613ba760388361443c565b9150613bb282614a61565b604082019050919050565b6000613bca60118361443c565b9150613bd582614ab0565b602082019050919050565b6000613bed602a8361443c565b9150613bf882614ad9565b604082019050919050565b6000613c1060298361443c565b9150613c1b82614b28565b604082019050919050565b6000613c3360218361443c565b9150613c3e82614b77565b604082019050919050565b6000613c5660208361443c565b9150613c6182614bc6565b602082019050919050565b6000613c7960198361443c565b9150613c8482614bef565b602082019050919050565b6000613c9c602c8361443c565b9150613ca782614c18565b604082019050919050565b6000613cbf60058361444d565b9150613cca82614c67565b600582019050919050565b6000613ce260208361443c565b9150613ced82614c90565b602082019050919050565b6000613d0560218361443c565b9150613d1082614cb9565b604082019050919050565b6000613d2860278361443c565b9150613d3382614d08565b604082019050919050565b6000613d4b60318361443c565b9150613d5682614d57565b604082019050919050565b6000613d6e60278361443c565b9150613d7982614da6565b604082019050919050565b6000613d9160188361443c565b9150613d9c82614df5565b602082019050919050565b6000613db4601f8361443c565b9150613dbf82614e1e565b602082019050919050565b6000613dd760178361443c565b9150613de282614e47565b602082019050919050565b6000613dfa60018361444d565b9150613e0582614e70565b600182019050919050565b613e19816145e9565b82525050565b613e28816145e9565b82525050565b6000613e3a82856139e0565b9150613e4582613ded565b9150613e5182846139af565b9150613e5c82613cb2565b91508190509392505050565b6000602082019050613e7d60008301846138b2565b92915050565b6000606082019050613e9860008301866138b2565b613ea560208301856138b2565b613eb26040830184613e1f565b949350505050565b6000608082019050613ecf60008301876138b2565b613edc60208301866138b2565b613ee96040830185613e1f565b8181036060830152613efb818461392e565b905095945050505050565b6000604082019050613f1b60008301856138b2565b613f286020830184613e1f565b9392505050565b60006020820190508181036000830152613f4981846138c1565b905092915050565b6000602082019050613f66600083018461391f565b92915050565b6000602082019050613f816000830184613967565b92915050565b60006020820190508181036000830152613fa18184613976565b905092915050565b60006040820190508181036000830152613fc38185613976565b9050613fd26020830184613e1f565b9392505050565b60006020820190508181036000830152613ff281613a5f565b9050919050565b6000602082019050818103600083015261401281613a82565b9050919050565b6000602082019050818103600083015261403281613aa5565b9050919050565b6000602082019050818103600083015261405281613ac8565b9050919050565b6000602082019050818103600083015261407281613aeb565b9050919050565b6000602082019050818103600083015261409281613b0e565b9050919050565b600060208201905081810360008301526140b281613b31565b9050919050565b600060208201905081810360008301526140d281613b54565b9050919050565b600060208201905081810360008301526140f281613b77565b9050919050565b6000602082019050818103600083015261411281613b9a565b9050919050565b6000602082019050818103600083015261413281613bbd565b9050919050565b6000602082019050818103600083015261415281613be0565b9050919050565b6000602082019050818103600083015261417281613c03565b9050919050565b6000602082019050818103600083015261419281613c26565b9050919050565b600060208201905081810360008301526141b281613c49565b9050919050565b600060208201905081810360008301526141d281613c6c565b9050919050565b600060208201905081810360008301526141f281613c8f565b9050919050565b6000602082019050818103600083015261421281613cd5565b9050919050565b6000602082019050818103600083015261423281613cf8565b9050919050565b6000602082019050818103600083015261425281613d1b565b9050919050565b6000602082019050818103600083015261427281613d3e565b9050919050565b6000602082019050818103600083015261429281613d61565b9050919050565b600060208201905081810360008301526142b281613d84565b9050919050565b600060208201905081810360008301526142d281613da7565b9050919050565b600060208201905081810360008301526142f281613dca565b9050919050565b600060208201905061430e6000830184613e1f565b92915050565b600061431e61432f565b905061432a828261468b565b919050565b6000604051905090565b600067ffffffffffffffff821115614354576143536147c3565b5b602082029050602081019050919050565b600067ffffffffffffffff8211156143805761437f6147c3565b5b61438982614814565b9050602081019050919050565b600067ffffffffffffffff8211156143b1576143b06147c3565b5b6143ba82614814565b9050602081019050919050565b6000819050602082019050919050565b60008190508160005260206000209050919050565b600081519050919050565b600081519050919050565b600081519050919050565b6000602082019050919050565b600082825260208201905092915050565b600082825260208201905092915050565b600082825260208201905092915050565b600081905092915050565b6000614463826145e9565b915061446e836145e9565b9250827fffffffffffffffffffffffffffffffffffffffffffffffffffffffffffffffff038211156144a3576144a2614736565b5b828201905092915050565b60006144b9826145e9565b91506144c4836145e9565b9250826144d4576144d3614765565b5b828204905092915050565b60006144ea826145e9565b91506144f5836145e9565b9250817fffffffffffffffffffffffffffffffffffffffffffffffffffffffffffffffff048311821515161561452e5761452d614736565b5b828202905092915050565b6000614544826145e9565b915061454f836145e9565b92508282101561456257614561614736565b5b828203905092915050565b6000614578826145c9565b9050919050565b60008115159050919050565b60007fffffffff0000000000000000000000000000000000000000000000000000000082169050919050565b60006145c28261456d565b9050919050565b600073ffffffffffffffffffffffffffffffffffffffff82169050919050565b6000819050919050565b60006145fe82614605565b9050919050565b6000614610826145c9565b9050919050565b82818337600083830152505050565b60005b83811015614644578082015181840152602081019050614629565b83811115614653576000848401525b50505050565b6000600282049050600182168061467157607f821691505b6020821081141561468557614684614794565b5b50919050565b61469482614814565b810181811067ffffffffffffffff821117156146b3576146b26147c3565b5b80604052505050565b60006146c7826145e9565b91507fffffffffffffffffffffffffffffffffffffffffffffffffffffffffffffffff8214156146fa576146f9614736565b5b600182019050919050565b6000614710826145e9565b915061471b836145e9565b92508261472b5761472a614765565b5b828206905092915050565b7f4e487b7100000000000000000000000000000000000000000000000000000000600052601160045260246000fd5b7f4e487b7100000000000000000000000000000000000000000000000000000000600052601260045260246000fd5b7f4e487b7100000000000000000000000000000000000000000000000000000000600052602260045260246000fd5b7f4e487b7100000000000000000000000000000000000000000000000000000000600052604160045260246000fd5b600060033d11156148115760046000803e61480e600051614825565b90505b90565b6000601f19601f8301169050919050565b60008160e01c9050919050565b7f4552433732313a207472616e7366657220746f206e6f6e20455243373231526560008201527f63656976657220696d706c656d656e7465720000000000000000000000000000602082015250565b7f4f776e61626c653a206e6577206f776e657220697320746865207a65726f206160008201527f6464726573730000000000000000000000000000000000000000000000000000602082015250565b7f4552433732313a207472616e736665722066726f6d20696e636f72726563742060008201527f6f776e6572000000000000000000000000000000000000000000000000000000602082015250565b7f4552433732313a20746f6b656e20616c7265616479206d696e74656400000000600082015250565b7f4d6178204e46547320746f206d696e742069732074656e000000000000000000600082015250565b7f4552433732313a207472616e7366657220746f20746865207a65726f2061646460008201527f7265737300000000000000000000000000000000000000000000000000000000602082015250565b7f4552433732313a20617070726f766520746f2063616c6c657200000000000000600082015250565b7f4552433732313a206f70657261746f7220717565727920666f72206e6f6e657860008201527f697374656e7420746f6b656e0000000000000000000000000000000000000000602082015250565b7f5061757361626c653a2070617573656400000000000000000000000000000000600082015250565b7f4552433732313a20617070726f76652063616c6c6572206973206e6f74206f7760008201527f6e6572206e6f7220617070726f76656420666f7220616c6c0000000000000000602082015250565b7f4e6f6e6578697374656e7420746f6b656e000000000000000000000000000000600082015250565b7f4552433732313a2062616c616e636520717565727920666f7220746865207a6560008201527f726f206164647265737300000000000000000000000000000000000000000000602082015250565b7f4552433732313a206f776e657220717565727920666f72206e6f6e657869737460008201527f656e7420746f6b656e0000000000000000000000000000000000000000000000602082015250565b7f4e6f7420656e6f756768204e4654732072656d61696e696e6720746f206d696e60008201527f7400000000000000000000000000000000000000000000000000000000000000602082015250565b7f4552433732313a206d696e7420746f20746865207a65726f2061646472657373600082015250565b7f416c6c204e4654732068617665206265656e206d696e74656400000000000000600082015250565b7f4552433732313a20617070726f76656420717565727920666f72206e6f6e657860008201527f697374656e7420746f6b656e0000000000000000000000000000000000000000602082015250565b7f2e6a736f6e000000000000000000000000000000000000000000000000000000600082015250565b7f4f776e61626c653a2063616c6c6572206973206e6f7420746865206f776e6572600082015250565b7f4552433732313a20617070726f76616c20746f2063757272656e74206f776e6560008201527f7200000000000000000000000000000000000000000000000000000000000000602082015250565b7f546f6b656e204944206d757374206265206d696e746564206f6e206f6c64206360008201527f6f6e747261637400000000000000000000000000000000000000000000000000602082015250565b7f4552433732313a207472616e736665722063616c6c6572206973206e6f74206f60008201527f776e6572206e6f7220617070726f766564000000000000000000000000000000602082015250565b7f43616e6e6f7420636865636b206d6967726174696f6e20737461747573206f6660008201527f207632204e465400000000000000000000000000000000000000000000000000602082015250565b7f496e636f7272656374204554482076616c75652073656e740000000000000000600082015250565b7f5265656e7472616e637947756172643a207265656e7472616e742063616c6c00600082015250565b7f5075626c69632073616c65206973206e6f74206f70656e000000000000000000600082015250565b7f2f00000000000000000000000000000000000000000000000000000000000000600082015250565b600060443d1015614ea957614f2c565b614eb161432f565b60043d036004823e80513d602482011167ffffffffffffffff82111715614ed9575050614f2c565b808201805167ffffffffffffffff811115614ef75750505050614f2c565b80602083010160043d038501811115614f14575050505050614f2c565b614f238260200185018661468b565b82955050505050505b90565b614f388161456d565b8114614f4357600080fd5b50565b614f4f8161457f565b8114614f5a57600080fd5b50565b614f668161458b565b8114614f7157600080fd5b50565b614f7d816145b7565b8114614f8857600080fd5b50565b614f94816145e9565b8114614f9f57600080fd5b5056fea2646970667358221220917c12c99aebaedd6bfd1bab59ba27f4f9723ac180e536f28f45dac5f9e3bb8a64736f6c63430008040033",
  "linkReferences": {},
  "deployedLinkReferences": {}
}